:100000000C9434000C9489010C9451000C94510010
:100010000C9451000C9451000C9451000C9451001C
:100020000C9451000C9451000C9451000C947A01E2
:100030000C9451000C9451000C9451000C945100FC
:100040000C9451000C9451000C9451000C945100EC
:100050000C9451000C9451000C9451000C945100DC
:100060000C9451000C94510011241FBECFEFD8E026
:10007000DEBFCDBF12E0A0E0B1E0EEE6FAE002C0E4
:1000800005900D92A232B107D9F722E0A2E2B2E0C8
:1000900001C01D92A832B207E1F70E945E010C94E4
:1000A00035050C94000080E28093B800ECEBF0E0A2
:1000B0008081846080830895CF93289880680E940F
:1000C0000C0380E00E940C03C82F80E00E940C0308
:1000D000289A2C2F30E0322F2227A901482BCA0161
:1000E000CF910895CF93DF93D62FC42F28980E94E5
:1000F0000C038D2F0E940C038C2F0E940C03289A56
:10010000DF91CF910895209A289A0CB404FE0E94A2
:10011000F30248E766E580E30E9472000895CF93FA
:10012000DF930E949801EC0185E290E09983888337
:1001300022E02A839C838B8321E02D839F838E83FF
:1001400025E028879A87898723E02B879D878C87DE
:1001500084E08E87E9E6F0E0808182608083E89A1F
:10016000CE010E940302CE01DF91CF910895E1E814
:10017000F0E0808188608083AFE6B0E08C9182609F
:100180008C9382E19AE79093890080938800808124
:1001900084608083089586E091E00E942B0385E0CF
:1001A0000E94EB020E94F50382E291E00E942B0381
:1001B00086E291E00E942B0386E00E94EB020E94FF
:1001C000F50382E291E00E942B0308958EE391E013
:1001D0000E942B0388EC91E00E942B0381E591E0C3
:1001E0000E942B0381E00E945C000E94410388EC86
:1001F00091E00E942B0385E691E00E942B0383E0AF
:100200000E945C000E94410388EC91E00E942B0355
:1002100089E791E00E942B038BE20E945C000E9420
:10022000410388EC91E00E942B0389E891E00E9451
:100230002B0380E30E945C000E94410388EC91E064
:100240000E942B03089589EA91E00E942B0380E32A
:100250000E945C000E9441038BEC91E00E942B0302
:1002600089E40E945C000E94410385ED91E00E94B8
:100270002B0388E40E945C000E94410380EE91E021
:100280000E942B038AE40E945C000E94410381EFDC
:1002900091E00E942B038CE40E945C000E944103C9
:1002A0008EEF91E00E942B038DE40E945C000E947F
:1002B000410388EC91E00E942B0308950E941203F1
:1002C0000E9453000E94F30278940E948F000E94C3
:1002D00083000E94B7008EE092E00E942B030E94F0
:1002E000CB000E94E600809122028823E1F30E9465
:1002F0002301F9CF1F920F920FB60F9211248F9303
:1003000081E0809322028F910F900FBE0F901F907B
:1003100018951F920F920FB60F9211248F9381E0C0
:10032000809323028F910F900FBE0F901F9018950E
:1003300080E190E00E94140420E1FC0111922A95D2
:10034000E9F70895CF92DF92EF92FF920F931F93F8
:10035000CF93DF937C01862F6A018901D701ED914C
:10036000FC911197908121E030E012960C9002C030
:10037000220F331F0A94E2F72095292320830E943D
:100380000C03F70187870115110551F0E6010C0DEB
:100390001D1D88810E940C038993C017D107C9F7DE
:1003A000D701ED91FC911197208181E090E01296A8
:1003B0000C90129702C0880F991F0A94E2F7822BC3
:1003C00080831F968C91DF91CF911F910F91FF90A9
:1003D000EF90DF90CF90089560620E94A20108958F
:1003E000CF93DF931F92CDB7DEB720E7298321E0BB
:1003F00030E0AE014F5F5F4F67E00E94EC010F906D
:10040000DF91CF910895FF920F931F93CF93DF93C6
:100410001F92CDB7DEB78C01DC01ED91FC911197F5
:10042000429181E090E09C0112960C90129702C0DC
:10043000220F331F0A94E2F7242B20831396ED91A9
:10044000FC91149742919C0115960C90159702C04F
:10045000220F331F0A94E2F7242B2083ED91FC91A5
:10046000119740819C0112960C90129702C0220FA6
:10047000331F0A94E2F7242B20831396ED91FC910D
:1004800014973081AC0115960C90159702C0440F5B
:10049000551F0A94E2F7242F2095232320831696D4
:1004A000ED91FC91179742919C0118960C9018972A
:1004B00002C0220F331F0A94E2F7242B20831996DF
:1004C000ED91FC911A9742919C011B960C901B9701
:1004D00002C0220F331F0A94E2F7242B20831C96BC
:1004E000ED91FC911D9722911E960C9002C0880FF1
:1004F000991F0A94E2F78095822380830CB404FE4E
:100500000E94F30220E030E040E050E062EEC801DB
:100510000E94A20120E030E040E050E061EEC8011E
:100520000E94A201C8010E94F0018FE0898321E0AE
:1005300030E0AE014F5F5F4F60E0C8010E94EC0108
:100540000F2EFFE3FF2EF02DF98221E030E0AE0107
:100550004F5F5F4F61E0C8010E94EC0189E0898331
:1005600021E030E0AE014F5F5F4F66E0C8010E94BE
:10057000EC0180E6898321E030E0AE014F5F5F4F00
:1005800065E0C8010E94EC01F98221E030E0AE0193
:100590004F5F5F4F6CE1C8010E94EC0184E08983EA
:1005A00021E030E0AE014F5F5F4F6DE1C8010E9476
:1005B000EC0181E0898321E030E0AE014F5F5F4FC5
:1005C00062E0C8010E94EC010F90DF91CF911F9172
:1005D0000F91FF9008952A980E940C0380E00E94DA
:1005E0000C032A9A08958CB580618CBD8CB580640B
:1005F0008CBD8CB5877F8CBD8CB58B7F8CBD8CB54D
:1006000081608CBD8CB58D7F8CBD8DB58E7F8DBD91
:100610008CB58F7D8CBD08958EBD0DB407FEFDCFCA
:100620008EB508951092C50083E38093C400E0EC7A
:10063000F0E080818D7F808388E18093C10086E037
:100640008093C2000895E0ECF0E0908195FFFDCF2B
:100650008093C60008950F931F93CF93FC01808170
:10066000882359F08F01C0E00E942303CF5FF80177
:10067000EC0FF11D80818111F7CFCF911F910F9168
:1006800008950F931F93CF93DF938C019C013295B4
:1006900022952F7023273F702327A7E4B3E00E9401
:1006A0000504969587959695879596958795805D8F
:1006B0000E94230398013695279536952795369500
:1006C0002795A5ECB0E20E940504AC015295429535
:1006D0004F7045275F7045279A01ADECBCEC0E9436
:1006E00005049695879596958795969587959C018F
:1006F000220F331F880F991F880F991F880F991F8A
:10070000820F931F9A01281B390BC901805D0E943B
:10071000230398013695279536952795ABE7B4E1E5
:100720000E940504AC01569547959A01ADECBCECCE
:100730000E94050496958795969587959695879539
:100740009C01220F331F880F991F880F991F880F54
:10075000991F820F931F9A01281B390BC901805DD5
:100760000E9423039801ADECBCEC0E940504EC014F
:10077000D695C795D695C795D695C7959E010E94E3
:1007800005049695879596958795969587959C01EE
:10079000220F331F880F991F880F991F880F991FE9
:1007A000820F931F9E01281B390BC901805D0E9497
:1007B0002303CE01880F991FCC0FDD1FCC0FDD1F47
:1007C000CC0FDD1FC80FD91FC8018C1B9D0B805D8E
:1007D0000E942303DF91CF911F910F9108958A30DA
:1007E00010F4805D0895895C0895CF93C82F829599
:1007F0008F700E94EF030E9423038C2F8F700E9442
:10080000EF030E942303CF910895A29FB001B39FED
:10081000C001A39F700D811D1124911DB29F700D09
:10082000811D1124911D08950F931F93CF93DF9382
:100830008230910510F482E090E0E0912602F09180
:10084000270220E030E0A0E0B0E0309719F14081CD
:1008500051810281138148175907C8F08417950701
:1008600069F4109731F012960C93129713961C931B
:1008700027C0009326021093270222C021153105BC
:1008800019F04217530718F49A01BD01EF01DF0177
:10089000F801DBCF21153105F9F0281B390B243085
:1008A000310580F48A819B816115710521F0FB017E
:1008B0009383828304C09093270280932602FE01D3
:1008C000329644C0FE01E20FF31F819391932250B0
:1008D0003109398328833AC02091240230912502BE
:1008E000232B41F420910201309103013093250222
:1008F000209324022091000130910101211531053E
:1009000041F42DB73EB74091040150910501241BDD
:10091000350BE0912402F0912502E217F307A0F4D1
:100920002E1B3F0B2817390778F0AC014E5F5F4F45
:100930002417350748F04E0F5F1F50932502409350
:1009400024028193919302C0E0E0F0E0CF01DF91B7
:10095000CF911F910F910895CF93DF93009709F4E2
:1009600081C0FC01329713821282A0912602B091BD
:100970002702109781F420813181820F931F2091EB
:100980002402309125022817390751F5F0932502EA
:10099000E093240267C0ED0120E030E0CE17DF07CE
:1009A00040F44A815B819E0141155105F1F0EA0155
:1009B000F5CFD383C28340815181840F951FC8171F
:1009C000D90759F488819981840F951F02969183E4
:1009D00080838A819B81938382832115310529F449
:1009E000F0932702E09326023DC0E901FB83EA83EE
:1009F00049915991C40FD51FEC17FD0761F480810F
:100A00009181840F951F0296E901998388838281E1
:100A100093819B838A83E0E0F0E012968D919C9114
:100A20001397009719F0FD01DC01F7CF8D919C9190
:100A300011979D012E5F3F4F820F931F209124023B
:100A4000309125022817390769F4309729F410925C
:100A500027021092260202C013821282B09325024E
:0E0A6000A0932402DF91CF910895F894FFCF68
:100A6E000000280220005472616E736D69747469FF
:100A7E006E67206F6E204368616E6E656C3A203033
:100A8E007800480D0A005246205365742075702078
:100A9E0056616C75653A2000202020002F00506FA3
:100AAE007765722049432053657474696E67733A93
:100ABE0000704943205265672056616C7565203081
:100ACE0031483A2000704943205265672056616CC8
:100ADE007565203033483A20004D65746572696E35
:100AEE0067204D6F64653A20004D656173757265C0
:100AFE006D656E742043616C6962726174696F6EAC
:100B0E002073746172743A20004D6561737572655D
:100B1E006D656E742043616C6962726174696F6E8B
:100B2E002073746172743A200D0A00566F6C7461F2
:100B3E0067653A20000943757272656E743A20003B
:100B4E00092041637469766520506F7765723A208B
:100B5E0000094672657175656E63793A2000095019
:100B6E006F77657220466163746F723A200053741A
:100B7E00617274696E672050726F6772616D210DBC
:020B8E000A005B
:00000001FF
