S0120000506F7765724D657465722E7372656308
S11300000C9434000C9467070C9451000C94510028
S11300100C9451000C9451000C9451000C94510018
S11300200C9451000C9451000C9451000C945807FA
S11300300C9451000C9451000C9451000C945100F8
S11300400C9451000C9451000C9451000C945100E8
S11300500C9451000C9451000C9451000C945100D8
S11300600C9451000C94510011241FBECFEFD8E022
S1130070DEBFCDBF12E0A0E0B1E0EAE2F5E102C0EC
S113008005900D92A438B107D9F722E0A4E8B2E0B4
S113009001C01D92AA38B207E1F70E941D070C9413
S11300A0930A0C94000080E28093B800ECEBF0E03B
S11300B08081846080830895ECEBF0E08081882364
S11300C0ECF7089584EA8093BC000E945C000895D4
S11300D084E98093BC0008958093BB0084E88093F6
S11300E0BC000E945C000895CF93C82F0E94620058
S11300F08EE40E946C008C2F0E946C008C2F846014
S11301000E946C008C2F8B7F0E946C000E94680000
S1130110CF91089580E30E94740080E30E947400EC
S113012080E30E94740080E20E947400089580E2DB
S11301300E94740080E80E94740080E00E947400B1
S113014080E80E94740080E00E94740080E10E94B4
S1130150740080E00E94740080E60E947400089598
S113016088E00E94740088EF0E94740008950E9441
S11301708A000E9497000E94B000089588E00E94BF
S1130180740088E10E9474000895CF93C82F807F83
S113019089600E94740020E1C29FC001112489601B
S11301A00E947400CF910895CF93DF93843091051A
S11301B014F083E090E0C62FD72FC531D10514F099
S11301C0C4E1D0E0009781F48C2F807F88680E947E
S11301D07400CE0182959295907F9827807F98270E
S11301E088600E9474003DC08130910589F48C2F91
S11301F0805C807F88680E947400CE01829592950D
S1130200907F9827807F982788600E94740029C077
S11302108230910591F48C2F8C5E807F88680E94D7
S11302207400CE01449682959295907F9827807FA2
S1130230982788600E94740014C0039791F48C2F4F
S11302408C5A807F88680E947400CE018C5A9F4F1C
S113025082959295907F9827807F982788600E9446
S11302607400DF91CF9108950F931F93CF93FC01F6
S11302708081882359F08F01C0E00E94C500CF5FC0
S1130280F801EC0FF11D80818111F7CFCF911F91FF
S11302900F910895CF93289880680E94E20880E027
S11302A00E94E208C82F80E00E94E208289A2C2FBE
S11302B030E0322F2227A901482BCA01CF9108959B
S11302C0CF93DF93C62FD72F28980E94E2088D2F53
S11302D00E94E2088C2F0E94E208289ADF91CF91B5
S11302E00895CF93DF93209A289A0CB404FE0E94B9
S11302F0C90868E776E580E20E94600160E370E087
S113030081E20E94600163ED73EB82E20E9460016E
S113031060E070E083E20E94600160E070E084E2EB
S11303200E94600160E070E085E20E94600160E08C
S113033070E086E20E9460016DEB78E087E20E9443
S1130340600160E070E088E20E9460016CEE7AE097
S113035089E20E94600160E070E08AE20E9460012C
S113036062E274E38BE20E9460018CE20E944A0123
S1130370BC018CE20E94600165E677E880E20E949D
S1130380600168E776E580E30E94600161E675E854
S113039081E30E9460016CE17DE382E30E946001DD
S11303A060E375E783E30E94600160E070E084E34A
S11303B00E94600160E070E085E30E94600160E0FB
S11303C070E086E30E94600160E070E087E30E94D1
S11303D0600160E070E088E30E94600160E070E02A
S11303E089E30E94600160E070E08AE30E9460019A
S11303F08BE30E944A01EC0160E070E08BE30E9411
S11304006001BE018BE30E94600165E677E880E34A
S11304100E946001DF91CF9108950F931F93CF93B2
S1130420DF938C019C01329522952F7023273F7016
S11304302327A7E4B3E00E944F09969587959695E4
S1130440879596958795805D0E94F9089801369561
S113045027953695279536952795A5ECB0E20E9409
S11304604F09AC01529542954F7045275F7045275F
S11304709A01ADECBCEC0E944F0996958795969530
S11304808795969587959C01220F331F880F991F96
S1130490880F991F880F991F820F931F9A01281B99
S11304A0390BC901805D0E94F9089801369527959A
S11304B036952795ABE7B4E10E944F09AC015695F8
S11304C047959A01ADECBCEC0E944F09969587952F
S11304D096958795969587959C01220F331F880FD3
S11304E0991F880F991F880F991F820F931F9A01D4
S11304F0281B390BC901805D0E94F90886E091E050
S11305000E9401099801ADECBCEC0E944F09EC017A
S1130510D695C795D695C795D695C7959E010E9441
S11305204F099695879596958795969587959C01FD
S1130530220F331F880F991F880F991F880F991F47
S1130540820F931F9E01281B390BC901805D0E94F5
S1130550F908CE01880F991FCC0FDD1FCC0FDD1FCA
S1130560CC0FDD1FC80FD91FC8018C1B9D0B805DEC
S11305700E94F908DF91CF911F910F9108950F9375
S11305801F93CF93DF938C019C01329522952F709A
S113059023273F702327A7E4B3E00E944F099695D1
S11305A087959695879596958795805D0E94F9081D
S11305B09801369527953695279536952795A5EC78
S11305C0B0E20E944F09AC01529542954F70452705
S11305D05F7045279A01ADECBCEC0E944F099695DB
S11305E0879596958795969587959C01220F331F3D
S11305F0880F991F880F991F880F991F820F931FC7
S11306009A01281B390BC901805D0E94F90886E014
S113061091E00E9401099801369527953695279512
S1130620ABE7B4E10E944F09AC01569547959A0196
S1130630ADECBCEC0E944F099695879596958795ED
S1130640969587959C01220F331F880F991F880F59
S1130650991F880F991F820F931F9A01281B390B2A
S1130660C901805D0E94F9089801ADECBCEC0E94C0
S11306704F09EC01D695C795D695C795D695C795DC
S11306809E010E944F099695879596958795969514
S113069087959C01220F331F880F991F880F991F7C
S11306A0880F991F820F931F9E01281B390BC901C4
S11306B0805D0E94F908CE01880F991FCC0FDD1FC1
S11306C0CC0FDD1FCC0FDD1FC80FD91FC8018C1B39
S11306D09D0B805D0E94F908DF91CF911F910F91CE
S11306E008950F931F93CF93DF93EC0199230CF09C
S11306F03FC088E091E00E940109D195C195D109DC
S1130700CE0160E177E20E943B0980E3860F0E94FC
S1130710F908CE0168EE73E00E943B09CB010AE0C0
S113072010E0B8010E943B09805D0E94F90886E050
S113073091E00E940109CE0164E670E00E943B0949
S1130740CB01B8010E943B09805D0E94F908CE01EB
S1130750B8010E943B09C82FCB01B8010E943B0994
S1130760805D0E94F90880E38C0F0E94F90836C06E
S113077060E177E20E943B0980E3860F0E94F9085A
S1130780CE0168EE73E00E943B09CB010AE010E061
S1130790B8010E943B09805D0E94F90886E091E05F
S11307A00E940109CE0164E670E00E943B09CB017E
S11307B0B8010E943B09805D0E94F908CE01B8018E
S11307C00E943B09C82FCB01B8010E943B09805D00
S11307D00E94F90880E38C0F0E94F908DF91CF9101
S11307E01F910F9108950F931F93CF93DF938C0163
S11307F09C01369527953695279536952795A5EC32
S1130800B0E20E944F09AC01529542954F704527C2
S11308105F7045279A01ADECBCEC0E944F09969598
S1130820879596958795969587959C01220F331FFA
S1130830880F991F880F991F880F991F820F931F84
S11308409A01281B390BC901805D0E94F90898019F
S11308503695279536952795ABE7B4E10E944F0965
S1130860AC01569547959A01ADECBCEC0E944F093A
S11308709695879596958795969587959C01220FD1
S1130880331F880F991F880F991F880F991F820F94
S1130890931F9A01281B390BC901805D0E94F90836
S11308A086E091E00E9401099801ADECBCEC0E9445
S11308B04F09EC01D695C795D695C795D695C7959A
S11308C09E010E944F0996958795969587959695D2
S11308D087959C01220F331F880F991F880F991F3A
S11308E0880F991F820F931F9E01281B390BC90182
S11308F0805D0E94F908CE01880F991FCC0FDD1F7F
S1130900CC0FDD1FCC0FDD1FC80FD91FC8018C1BF6
S11309109D0B805D0E94F908DF91CF911F910F918B
S113092008950F931F93CF93DF93EC019923A4F5BC
S1130930DF7788E091E00E940109CE0168EE73E060
S11309400E943B09CB010AE010E0B8010E943B0978
S1130950805D0E94F90886E091E00E940109CE01C1
S113096064E670E00E943B09CB01B8010E943B0998
S1130970805D0E94F908CE01B8010E943B09C82F8E
S1130980CB01B8010E943B09805D0E94F90880E315
S11309908C0F0E94F9082DC068EE73E00E943B0999
S11309A0CB010AE010E0B8010E943B09805D0E947F
S11309B0F90886E091E00E940109CE0164E670E046
S11309C00E943B09CB01B8010E943B09805D0E9453
S11309D0F908CE01B8010E943B09C82FCB01B80128
S11309E00E943B09805D0E94F90880E38C0F0E94FD
S11309F0F908DF91CF911F910F9108950F931F93E1
S1130A00CF93DF93EC019923B4F588E091E00E9441
S1130A100109D195C195D109CE0168EE73E00E9418
S1130A203B09CB010AE010E0B8010E943B09805D5C
S1130A300E94F908CE0164E670E00E943B09CB01F4
S1130A40B8010E943B09805D0E94F908CE01B801FB
S1130A500E943B09C82FCB01B8010E943B09805D6D
S1130A600E94F90886E091E00E94010980E38C0F5E
S1130A700E94F9082DC068EE73E00E943B09CB0187
S1130A800AE010E0B8010E943B09805D0E94F90869
S1130A90CE0164E670E00E943B09CB01B8010E94DC
S1130AA03B09805D0E94F908CE01B8010E943B0910
S1130AB0C82FCB01B8010E943B09805D0E94F90850
S1130AC086E091E00E94010980E38C0F0E94F908FE
S1130AD0DF91CF911F910F9108950F931F93CF939F
S1130AE0DF938C019C01329522952F7023273F7050
S1130AF02327A7E4B3E00E944F099695879596951E
S1130B00879596958795805D0E94F908980136959A
S1130B1027953695279536952795A5ECB0E20E9442
S1130B204F09AC01529542954F7045275F70452798
S1130B309A01ADECBCEC0E944F0996958795969569
S1130B408795969587959C01220F331F880F991FCF
S1130B50880F991F880F991F820F931F9A01281BD2
S1130B60390BC901805D0E94F908980136952795D3
S1130B7036952795ABE7B4E10E944F09AC01569531
S1130B8047959A01ADECBCEC0E944F099695879568
S1130B9096958795969587959C01220F331F880F0C
S1130BA0991F880F991F880F991F820F931F9A010D
S1130BB0281B390BC901805D0E94F9089801ADEC2E
S1130BC0BCEC0E944F09EC01D695C795D695C79504
S1130BD0D695C7959E010E944F099695879596953F
S1130BE08795969587959C01220F331F880F991F2F
S1130BF0880F991F880F991F820F931F9E01281B2E
S1130C00390BC901805D0E94F90886E091E00E94D9
S1130C100109CE01880F991FCC0FDD1FCC0FDD1FFA
S1130C20CC0FDD1FC80FD91FC8018C1B9D0B805D25
S1130C300E94F908DF91CF911F910F910895CF93EE
S1130C40DF930E947607EC0185E290E09983888324
S1130C5022E02A839C838B8321E02D839F838E83D0
S1130C6025E028879A87898723E02B879D878C87AF
S1130C7084E08E87E9E6F0E0808182608083E89AF0
S1130C80CE010E94E107CE01DF91CF910895E1E802
S1130C90F0E0808188608083AFE6B0E08C91826070
S1130CA08C9382E19AE790938900809388008081F5
S1130CB084608083089582E491E00E94010987E2C0
S1130CC091E00E94010985E591E00E94010981E01B
S1130CD00E944A010E942D0987E291E00E940109C5
S1130CE085E691E00E94010986E40E944A010E947F
S1130CF02D0987E291E00E94010987E791E00E94B3
S1130D0001098BE20E944A010E942D0987E291E0C9
S1130D100E94010987E891E00E9401098CE20E9487
S1130D204A010E942D0987E291E00E94010984E9A9
S1130D3091E00E9401098BE30E944A010E942D095F
S1130D4087E291E00E94010981EA91E00E94010991
S1130D5080E30E944A010E942D0987E291E00E94EB
S1130D60010989EC91E00E94010981E30E944A0192
S1130D700E942D0987E291E00E9401098CED91E027
S1130D800E94010982E30E944A010E942D0987E220
S1130D9091E00E940109089586EF91E00E94010903
S1130DA089E40E944A010E940D0280E092E00E94C0
S1130DB0010988E40E944A010E94BF0287E291E08F
S1130DC00E9401098CE092E00E9401098CE40E94D7
S1130DD04A010E94F30388E192E00E9401098DE434
S1130DE00E944A010E94910488E292E00E94010953
S1130DF08EE40E944A010E94FE0487E392E00E946E
S1130E0001098AE40E944A010E94710388E492E085
S1130E100E9401098BE40E944A010E9471038AE541
S1130E2092E00E9401098FE40E944A010E9471032A
S1130E308CE692E00E94010908950E94E8080E944D
S1130E4053000E94B7000E94C90878940E941F06AC
S1130E500E9471010E9447060E94BE0060E070E09B
S1130E6080E090E00E94D40080E792E00E94340188
S1130E700E945B06C0E0D0E000E010E080918402B4
S1130E808823E1F30E94CC0682E40E944A01C80F41
S1130E90D91FCE010E946D0587E291E00E940109ED
S1130EA010928402053011054CF70F5F1F4FE6CFF7
S1130EB01F920F920FB60F9211248F9381E08093AB
S1130EC084028F910F900FBE0F901F9018951F9260
S1130ED00F920FB60F9211248F9381E080938502B5
S1130EE08F910F900FBE0F901F90189580E190E0A6
S1130EF00E94720920E1FC0111922A95E9F70895F4
S1130F00CF92DF92EF92FF920F931F93CF93DF93D1
S1130F107C01862F6A018901D701ED91FC9111971B
S1130F20908121E030E012960C9002C0220F331F12
S1130F300A94E2F72095292320830E94E208F7010E
S1130F4087870115110551F0E6010C0D1D1D8881DF
S1130F500E94E2088993C017D107C9F7D701ED9120
S1130F60FC911197208181E090E012960C901297E9
S1130F7002C0880F991F0A94E2F7822B80831F9680
S1130F808C91DF91CF911F910F91FF90EF90DF90A3
S1130F90CF90089560620E9480070895CF93DF93F5
S1130FA01F92CDB7DEB720E7298321E030E0AE0100
S1130FB04F5F5F4F67E00E94CA070F90DF91CF91A8
S1130FC00895FF920F931F93CF93DF931F92CDB792
S1130FD0DEB78C01DC01ED91FC911197429181E027
S1130FE090E09C0112960C90129702C0220F331FBE
S1130FF00A94E2F7242B20831396ED91FC91149725
S113100042919C0115960C90159702C0220F331F34
S11310100A94E2F7242B2083ED91FC9111974081EF
S11310209C0112960C90129702C0220F331F0A944F
S1131030E2F7242B20831396ED91FC9114973081D1
S1131040AC0115960C90159702C0440F551F0A94D5
S1131050E2F7242F2095232320831696ED91FC910B
S1131060179742919C0118960C90189702C0220F72
S1131070331F0A94E2F7242B20831996ED91FC91F7
S11310801A9742919C011B960C901B9702C0220F49
S1131090331F0A94E2F7242B20831C96ED91FC91D4
S11310A01D9722911E960C9002C0880F991F0A94D6
S11310B0E2F78095822380830CB404FE0E94C90861
S11310C020E030E040E050E062EEC8010E9480077A
S11310D020E030E040E050E061EEC8010E9480076B
S11310E0C8010E94CE078FE0898321E030E0AE0181
S11310F04F5F5F4F60E0C8010E94CA070F2EFFE3F5
S1131100FF2EF02DF98221E030E0AE014F5F5F4FFA
S113111061E0C8010E94CA0789E0898321E030E0C8
S1131120AE014F5F5F4F66E0C8010E94CA0780E6C8
S1131130898321E030E0AE014F5F5F4F65E0C80175
S11311400E94CA07F98221E030E0AE014F5F5F4F91
S11311506CE1C8010E94CA0784E0898321E030E081
S1131160AE014F5F5F4F6DE1C8010E94CA0781E085
S1131170898321E030E0AE014F5F5F4F62E0C80138
S11311800E94CA070F90DF91CF911F910F91FF909A
S113119008958CB580618CBD8CB580648CBD8CB594
S11311A0877F8CBD8CB58B7F8CBD8CB581608CBDED
S11311B08CB58D7F8CBD8DB58E7F8DBD8CB58F7DAF
S11311C08CBD08958EBD0DB407FEFDCF8EB5089578
S11311D01092C50083E38093C400E0ECF0E08081CA
S11311E08D7F808388E18093C10086E08093C20074
S11311F00895E0ECF0E0908195FFFDCF8093C60068
S113120008950F931F93CF93FC018081882359F095
S11312108F01C0E00E94F908CF5FF801EC0FF11DC7
S113122080818111F7CFCF911F910F9108958A305A
S113123010F4805D0895895C0895CF93C82F82953A
S11312408F700E9417090E94F9088C2F8F700E94DA
S113125017090E94F908CF910895CF93C82F892FB9
S11312600E941D098C2F0E941D0982E892E00E94B1
S11312700109CF91089597FB072E16F4009407D027
S113128077FD09D00E945E0907FC05D03EF49095D5
S113129081959F4F0895709561957F4F0895A29F02
S11312A0B001B39FC001A39F700D811D1124911D36
S11312B0B29F700D811D1124911D0895AA1BBB1BA3
S11312C051E107C0AA1FBB1FA617B70710F0A61B42
S11312D0B70B881F991F5A95A9F780959095BC0163
S11312E0CD0108950F931F93CF93DF93823091051F
S11312F010F482E090E0E0918802F091890220E00D
S113130030E0A0E0B0E0309719F1408151810281D2
S1131310138148175907C8F08417950769F4109783
S113132031F012960C93129713961C9327C00093D6
S113133088021093890222C02115310519F0421741
S1131340530718F49A01BD01EF01DF01F801DBCF67
S113135021153105F9F0281B390B2430310580F4AF
S11313608A819B816115710521F0FB01938382833E
S113137004C09093890280938802FE01329644C08F
S1131380FE01E20FF31F81939193225031093983B7
S113139028833AC02091860230918702232B41F49E
S11313A02091020130910301309387022093860239
S11313B020910001309101012115310541F42DB72F
S11313C03EB74091040150910501241B350BE09177
S11313D08602F0918702E217F307A0F42E1B3F0B5D
S11313E02817390778F0AC014E5F5F4F2417350793
S11313F048F04E0F5F1F50938702409386028193FB
S1131400919302C0E0E0F0E0CF01DF91CF911F9112
S11314100F910895CF93DF93009709F481C0FC01E5
S1131420329713821282A0918802B0918902109798
S113143081F420813181820F931F209186023091A3
S113144087022817390751F5F0938702E093860243
S113145067C0ED0120E030E0CE17DF0740F44A8199
S11314605B819E0141155105F1F0EA01F5CFD3836B
S1131470C28340815181840F951FC817D90759F43D
S113148088819981840F951F0296918380838A8134
S11314909B81938382832115310529F4F09389027A
S11314A0E09388023DC0E901FB83EA8349915991A5
S11314B0C40FD51FEC17FD0761F480819181840F5F
S11314C0951F0296E90199838883828193819B8386
S11314D08A83E0E0F0E012968D919C911397009737
S11314E019F0FD01DC01F7CF8D919C9111979D01BD
S11314F02E5F3F4F820F931F209186023091870207
S11315002817390769F4309729F410928902109248
S1131510880202C013821282B0938702A0938602CB
S10D1520DF91CF910895F894FFCFF6
S113152A00008A0220002E002D005472616E736D31
S113153A697474696E67206F6E204368616E6E65A4
S113154A6C3A20307800480D0A00524620536574DC
S113155A2075702056616C75653A200020202000A1
S113156A2F00506F7765722049432053657474695C
S113157A6E67733A0053797374656D20537461749A
S113158A75733A20004D65746572696E67205374E9
S113159A617475733A20004D65746572696E6720CB
S11315AA4D6F64653A2000436865636B73756D20FB
S11315BA313A2000436865636B73756D20323A20B3
S11315CA004D6561737572656D656E742043616C57
S11315DA6962726174696F6E205374617274204314
S11315EA6F6D6D616E643A2000566F6C7461676545
S11315FA20524D53204761696E3A20004C204C69B1
S113160A6E652043757272656E7420524D5320477D
S113161A61696E3A2000566F6C746167653A2000FE
S113162A090943757272656E743A200046726571CF
S113163A75656E63793A200009506F7765722046A2
S113164A6163746F723A20000950686173652041BE
S113165A6E676C653A20000A0D41637469766520E9
S113166A506F7765723A200009526561637469762E
S113167A6520506F7765723A2000094162736F6C76
S113168A75746520506F7765723A20000D0A0A0056
S113169A5374617274696E672050726F6772616DF8
S10716AA21004800CF
S9030000FC
