:100000000C9434000C94D3010C9451000C945100C6
:100010000C9451000C9451000C9451000C9451001C
:100020000C9451000C9451000C9451000C94A001BC
:100030000C9451000C9451000C9451000C945100FC
:100040000C9451000C9451000C9451000C945100EC
:100050000C9451000C9451000C9451000C945100DC
:100060000C9451000C94510011241FBECFEFD8E026
:10007000DEBFCDBF12E0A0E0B1E0E0E3FBE002C0F4
:1000800005900D92AA30B107D9F722E0AAE0B2E0BC
:1000900001C01D92A031B207E1F70E9411010C943A
:1000A00096050C94000080E28093B800ECEBF0E041
:1000B0008081846080830895CF93DF930E94EE0156
:1000C000EC0185E290E09983888322E02A839C8377
:1000D0008B8321E02D839F838E8325E028879A8759
:1000E000898723E02B879D878C8784E08E87E9E6CC
:1000F000F0E0808182608083E89ACE010E946002F5
:10010000CE01DF91CF91089580E190E00E947504C7
:1001100020E1FC0111922A95E9F708950E948400DC
:10012000FC0185E290E09483838315829783868324
:1001300025E020879287818723E02387958784871E
:1001400084E08687CF010895E1E8F0E0808188604F
:100150008083AFE6B0E08C9182608C9382E19AE775
:1001600090938900809388008081846080830895C3
:100170008EBD0DB407FEFDCF8EB508952A980E945E
:10018000B80080E00E94B8002A9A0E94650483E1CA
:1001900091E00E9449040895CF93DF9328988068E6
:1001A0000E94B80080E00E94B800D82F80E00E9432
:1001B000B800C82F289A8D2F0E9465048C2F0E94AA
:1001C000650483E191E00E944904DF91CF91089595
:1001D0001F93CF93DF93182FD62FC42F28980E94F8
:1001E000B8008D2F0E94B8008C2F0E94B800289A6A
:1001F00087E191E00E944904812F0E94650481E219
:1002000091E00E9449048D2F0E9465048C2F0E946A
:10021000650483E191E00E944904DF91CF911F9131
:100220000895CF93DF93CDB7DEB7A3970FB6F894B9
:10023000DEBF0FBECDBF0E9430040E945300209A43
:1002400078940E945C008C010E948E000E94A400A1
:10025000289A8DE291E00E94490481E491E00E9495
:10026000490485E00E94BE008DE591E00E944904AA
:1002700086E00E94BE008FE691E00E94490481E082
:100280000E94CC0083E891E00E94490483E00E9430
:10029000CC0087E991E00E9449048BE20E94CC00E7
:1002A00089EE91E00E94490480E30E94CC0048E777
:1002B00066E580E30E94E80087EA91E00E94490435
:1002C00080E30E94CC00D12CCC24C3947E0183E037
:1002D000E80EF11C80910B02882351F010920B0262
:1002E000C8010E94DF03892B19F0C8010E94450252
:1002F00080910A02882371F310920A02DC2449F0EB
:100300008BE0EBECF1E0D70101900D928A95E1F7DB
:1003100008C088E0E6EDF1E0D70101900D928A95E2
:10032000E1F7F70101900020E9F7EE19EBA3AE0128
:100330004F5F5F4F66E071E0C8010E946F03CACF54
:100340001F920F920FB60F9211242F933F934F934A
:100350005F936F937F938F939F93AF93BF93EF932D
:10036000FF9381E080930A028EED91E00E944904A0
:1003700089E40E94CC0088EE91E00E94490480E369
:100380000E94CC00FF91EF91BF91AF919F918F910F
:100390007F916F915F914F913F912F910F900FBE81
:1003A0000F901F9018951F920F920FB60F92112465
:1003B0008F9381E080930B028F910F900FBE0F906F
:1003C0001F901895FC01A62FB72F9C012B5F3F4F64
:1003D00091919D93E217F307D9F7089580E190E09A
:1003E0000E94750420E1FC0111922A95E9F7089515
:1003F000CF93DF93EC01DA01E881F981508181E04C
:1004000090E00A8002C0880F991F0A94E2F7809555
:10041000852380836EBD0DB407FEFDCF8EB58F871B
:100420002115310579F0FD012A0F3B1FDF01908175
:100430009EBD0DB407FEFDCF9EB59C933196E2178D
:10044000F307A1F7E881F981208181E090E00A803B
:1004500002C0880F991F0A94E2F7822B80838F8550
:10046000DF91CF91089560620E94F80108950E9483
:10047000F801089520E030E040E050E06FEF0E9486
:10048000F80108950E943A02089520E030E040E02B
:1004900050E061EE0E94F8010895CF93DF931F9220
:1004A000CDB7DEB720E7298321E030E0AE014F5F12
:1004B0005F4F67E00E9433020F90DF91CF91089564
:1004C000FF920F931F93CF93DF931F92CDB7DEB7A9
:1004D0008C01DC01ED91FC911197429181E090E05B
:1004E0009C0112960C90129702C0220F331F0A949F
:1004F000E2F7242B20831396ED91FC9114974291FF
:100500009C0115960C90159702C0220F331F0A9478
:10051000E2F7242B2083ED91FC91119740819C01FF
:1005200012960C90129702C0220F331F0A94E2F722
:10053000242B20831396ED91FC9114973081AC010C
:1005400015960C90159702C0440F551F0A94E2F7B8
:10055000242F2095232320832CB520612CBD2CB57E
:1005600020642CBD1696ED91FC91179742919C0149
:1005700018960C90189702C0220F331F0A94E2F7C6
:10058000242B20831996ED91FC911A9742919C019E
:100590001B960C901B9702C0220F331F0A94E2F7A0
:1005A000242B20831C96ED91FC911D9722911E9681
:1005B0000C9002C0880F991F0A94E2F7809582235D
:1005C00080838CB5877F8CBD8CB58B7F8CBD8CB5C3
:1005D00081608CBD8CB58D7F8CBD8DB58E7F8DBDC2
:1005E0008CB58F7D8CBD20E030E040E050E062EEC5
:1005F000C8010E94F80120E030E040E050E061EEE8
:10060000C8010E94F801C8010E944D028FE0898351
:1006100021E030E0AE014F5F5F4F60E0C8010E9413
:1006200033020F2EFFE3FF2EF02DF98221E030E0A0
:10063000AE014F5F5F4F61E0C8010E94330289E065
:10064000898321E030E0AE014F5F5F4F66E0C80173
:100650000E94330280E6898321E030E0AE014F5FE3
:100660005F4F65E0C8010E943302F98221E030E06B
:10067000AE014F5F5F4F6CE1C8010E94330284E01E
:10068000898321E030E0AE014F5F5F4F6DE1C8012B
:100690000E94330281E0898321E030E0AE014F5FA8
:1006A0005F4F62E0C8010E9433020F90DF91CF914B
:1006B0001F910F91FF900895CF93DF931F92CDB7B5
:1006C000DEB720E3298321E030E0AE014F5F5F4FCA
:1006D00067E00E9433020F90DF91CF910895CF928F
:1006E000DF92EF92FF920F931F93CF93DF9300D08F
:1006F00000D000D0CDB7DEB78C016B017A010E942B
:100700005C03BE016F5F7F4FC6010E94E20125E0DE
:1007100030E0AE014F5F5F4F60E1C8010E943302DD
:10072000BE016F5F7F4FC6010E94E20125E030E00D
:10073000AE014F5F5F4F6AE0C8010E943302D701EC
:1007400092962C9130E0A7014E5F5F4F60EAC8019E
:100750000E94F80121E030E0AE014A5F5F4F60E0A7
:10076000C8010E9437028E818E7F8E8321E030E0A7
:10077000AE014A5F5F4F60E0C8010E943302D801BA
:100780001396ED91FC911497208181E090E01596ED
:100790000C9002C0880F991F0A94E2F7822B808385
:1007A00026960FB6F894DEBF0FBECDBFDF91CF9176
:1007B0001F910F91FF90EF90DF90CF900895EF92EF
:1007C000FF920F931F93CF93DF931F92CDB7DEB7A6
:1007D0008C01DC011396ED91FC911497208181E04E
:1007E00090E015960C9002C0880F991F0A94E2F7CA
:1007F000809582238083C8010E944202F801878588
:1008000085FD07C084FD08C06894EE24E1F8F12C52
:1008100006C0E12CF12C03C0EE24E394F12CC801B6
:100820000E945C0321E030E0AE014F5F5F4F60E06B
:10083000C8010E94370289818160898321E030E00C
:10084000AE014F5F5F4F60E0C8010E943302C701F5
:100850000F90DF91CF911F910F91FF90EF9008952E
:100860001092C50083E38093C400E0ECF0E0808147
:100870008D7F808388E18093C10086E08093C200F1
:100880000895E0ECF0E0908195FFFDCF8093C600E5
:1008900008950F931F93CF93FC018081882359F013
:1008A0008F01C0E00E944104CF5FF801EC0FF11D01
:1008B00080818111F7CFCF911F910F9108958A30D8
:1008C00010F4805D0895895C0895CF93C82F8295B8
:1008D0008F700E945F040E9441048C2F8F700E94D1
:1008E0005F040E944104CF9108950F931F93CF930B
:1008F000DF938230910510F482E090E0E0910E02E7
:10090000F0910F0220E030E0A0E0B0E0309719F164
:10091000408151810281138148175907C8F084171B
:10092000950769F4109731F012960C93129713966D
:100930001C9327C000930E0210930F0222C02115B2
:10094000310519F04217530718F49A01BD01EF0160
:10095000DF01F801DBCF21153105F9F0281B390B38
:100960002430310580F48A819B816115710521F065
:10097000FB019383828304C090930F0280930E0245
:10098000FE01329644C0FE01E20FF31F8193919362
:1009900022503109398328833AC020910C023091CA
:1009A0000D02232B41F42091020130910301309379
:1009B0000D0220930C0220910001309101012115BC
:1009C000310541F42DB73EB7409104015091050126
:1009D000241B350BE0910C02F0910D02E217F30796
:1009E000A0F42E1B3F0B2817390778F0AC014E5F9F
:1009F0005F4F2417350748F04E0F5F1F50930D02CD
:100A000040930C028193919302C0E0E0F0E0CF01AB
:100A1000DF91CF911F910F910895CF93DF930097AE
:100A200009F481C0FC01329713821282A0910E0258
:100A3000B0910F02109781F420813181820F931FB2
:100A400020910C0230910D022817390751F5F093CF
:100A50000D02E0930C0267C0ED0120E030E0CE17FC
:100A6000DF0740F44A815B819E0141155105F1F099
:100A7000EA01F5CFD383C28340815181840F951F52
:100A8000C817D90759F488819981840F951F029658
:100A9000918380838A819B81938382832115310591
:100AA00029F4F0930F02E0930E023DC0E901FB83AD
:100AB000EA8349915991C40FD51FEC17FD0761F4E2
:100AC00080819181840F951F0296E9019983888323
:100AD000828193819B838A83E0E0F0E012968D917E
:100AE0009C911397009719F0FD01DC01F7CF8D91D0
:100AF0009C9111979D012E5F3F4F820F931F209174
:100B00000C0230910D022817390769F4309729F447
:100B100010920F0210920E0202C013821282B09342
:100B20000D02A0930C02DF91CF910895F894FFCFAE
:100B3000000010022000C2C2C2C2C23A002020201F
:100B4000002F00480D0A00536574205265673A2053
:100B50000020746F2076616C75653A2000537461D3
:100B60007274696E672050726F6772616D210D0A31
:100B7000005472616E736D697474696E67206F6E74
:100B8000204368616E6E656C3A20307800524620D2
:100B90005365742075702056616C75653A2000703D
:100BA0004943205265672056616C75652030314895
:100BB0003A2000704943205265672056616C756584
:100BC000203033483A20004D65746572696E6720A5
:100BD0004D6F64653A20004E6577204D65617375F1
:100BE00072656D656E742063616C696272617469AF
:100BF0006F6E2073746172743A2000486F6C6F20BE
:100C0000426962697300546520416D6F2100566F1F
:100C10006C746167653A2000204D6561737572657B
:100C20006D656E742043616C6962726174696F6E88
:0A0C30002073746172743A20000012
:00000001FF
