S0120000506F7765724D657465722E7372656308
S11300000C9434000C94F1060C9451000C9451009F
S11300100C9451000C9451000C9451000C94510018
S11300200C9451000C9451000C9451000C94E20671
S11300300C9451000C9451000C9451000C945100F8
S11300400C9451000C9451000C9451000C945100E8
S11300500C9451000C9451000C9451000C945100D8
S11300600C9451000C94510011241FBECFEFD8E022
S1130070DEBFCDBF12E0A0E0B1E0E2E5F4E102C0F2
S113008005900D92A43BB107D9F722E0A4EBB2E0AE
S113009001C01D92AA3BB207E1F70E94B3060C947B
S11300A0270A0C94000080E28093B800ECEBF0E0A7
S11300B08081846080830895ECEBF0E08081882364
S11300C0ECF7089584EA8093BC000E945C000895D4
S11300D084E98093BC0008958093BB0084E88093F6
S11300E0BC000E945C000895CF93C82F0E94620058
S11300F08EE40E946C008C2F0E946C008C2F846014
S11301000E946C008C2F8B7F0E946C000E94680000
S1130110CF91089580E30E94740080E30E947400EC
S113012080E30E94740080E20E947400089580E2DB
S11301300E94740080E80E94740080E00E947400B1
S113014080E80E94740080E00E94740080E10E94B4
S1130150740080E00E94740080E60E947400089598
S113016088E00E94740088EF0E94740008950E9441
S11301708A000E9497000E94B000089588E00E94BF
S1130180740088E10E9474000895CF93C82F807F83
S113019089600E94740020E1C29FC001112489601B
S11301A00E947400CF910895CF93DF93843091051A
S11301B014F083E090E0C62FD72FC531D10514F099
S11301C0C4E1D0E0009781F48C2F807F88680E947E
S11301D07400CE0182959295907F9827807F98270E
S11301E088600E9474003DC08130910589F48C2F91
S11301F0805C807F88680E947400CE01829592950D
S1130200907F9827807F982788600E94740029C077
S11302108230910591F48C2F8C5E807F88680E94D7
S11302207400CE01449682959295907F9827807FA2
S1130230982788600E94740014C0039791F48C2F4F
S11302408C5A807F88680E947400CE018C5A9F4F1C
S113025082959295907F9827807F982788600E9446
S11302607400DF91CF9108950F931F93CF93FC01F6
S11302708081882359F08F01C0E00E94C500CF5FC0
S1130280F801EC0FF11D80818111F7CFCF911F91FF
S11302900F910895CF93289880680E946C0880E09D
S11302A00E946C08C82F80E00E946C08289A2C2FAA
S11302B030E0322F2227A901482BCA01CF9108959B
S11302C0CF93DF93C62FD72F28980E946C088D2FC9
S11302D00E946C088C2F0E946C08289ADF91CF91A1
S11302E00895CF93DF93209A289A0CB404FE0E94B9
S11302F0530868E776E580E20E94600160E370E0FD
S113030081E20E94600163ED73EB82E20E9460016E
S113031060E070E083E20E94600160E070E084E2EB
S11303200E94600160E070E085E20E94600160E08C
S113033070E086E20E9460016DEB78E087E20E9443
S1130340600160E070E088E20E9460016CEE7AE097
S113035089E20E94600160E070E08AE20E9460012C
S113036062E274E38BE20E9460018CE20E944A0123
S1130370BC018CE20E94600165E677E880E20E949D
S1130380600168E776E580E30E94600161E675E854
S113039081E30E9460016CE17DE382E30E946001DD
S11303A060E375E783E30E94600160E070E084E34A
S11303B00E94600160E070E085E30E94600160E0FB
S11303C070E086E30E94600160E070E087E30E94D1
S11303D0600160E070E088E30E94600160E070E02A
S11303E089E30E94600160E070E08AE30E9460019A
S11303F08BE30E944A01EC0160E070E08BE30E9411
S11304006001BE018BE30E94600165E677E880E34A
S11304100E946001DF91CF910895DC018C918823C3
S113042051F0FD0190E010829F5FFD01E90FF11D85
S113043020812111F8CF08950F931F93CF93DF9359
S1130440EC018B01CB010E940D029E013295229595
S11304502F7023273F702327A7E4B3E00E94E3080B
S1130460969587959695879596958795805DF801DD
S113047080839E0136952795369527953695279541
S1130480A5ECB0E20E94E308AC01529542954F708E
S113049045275F7045279A01ADECBCEC0E94E30848
S11304A09695879596958795969587959C01220FA5
S11304B0331F880F991F880F991F880F991F820F68
S11304C0931F481B590B405D41839E013695279528
S11304D036952795ABE7B4E10E94E308AC01569545
S11304E047959A01ADECBCEC0E94E308969587957C
S11304F096958795969587959C01220F331F880FB3
S1130500991F880F991F880F991F820F931F481BEB
S1130510590B405D42838EE283839E010E94E3086F
S1130520AC015695479556954795569547959A012A
S11305300E94E30896958795969587959695879555
S11305409C01220F331F880F991F880F991F880F52
S1130550991F820F931F9A01281B390BC901805DD3
S11305608483CA01880F991F440F551F440F551FD8
S1130570440F551F480F591FC41BD50BC05DC583BD
S1130580DF91CF911F910F9108950F931F93CF93F4
S1130590DF93EC018B01CB010E940D029E01329589
S11305A022952F7023273F702327A7E4B3E00E94EE
S11305B0E308969587959695879596958795805D9A
S11305C0F80180839E0136952795369527953695B3
S11305D02795A5ECB0E20E94E308AC015295429540
S11305E04F7045275F7045279A01ADECBCEC0E9423
S11305F0E3089695879596958795969587959C019A
S1130600220F331F880F991F880F991F880F991F76
S1130610820F931F481B590B405D41838EE28283F6
S11306209E013695279536952795ABE7B4E10E9450
S1130630E308AC01569547959A01ADECBCEC0E94D9
S1130640E3089695879596958795969587959C0149
S1130650220F331F880F991F880F991F880F991F26
S1130660820F931F481B590B405D43839E010E94D8
S1130670E308AC0156954795569547955695479589
S11306809A010E94E3089695879596958795969585
S113069087959C01220F331F880F991F880F991F7C
S11306A0880F991F820F931F9A01281B390BC901C8
S11306B0805D8483CA01880F991F440F551F440F1E
S11306C0551F440F551F480F591FC41BD50BC05D40
S11306D0C583DF91CF911F910F9108950F931F93BD
S11306E0CF93DF938C01EB01CB010E940D02112308
S11306F0A4F58DE28883119501951109C80160E183
S113070077E20E94CF08605D6983C80168EE73E0F8
S11307100E94CF08CB012AE030E0B9010E94CF0843
S1130720805D8A838EE28B83C80164E670E00E9458
S1130730CF08CB01B9010E94CF08805D8C83C8012A
S1130740B9010E94CF08482FCB01B9010E94CF08FC
S1130750805D8D83405D4E832EC0C80160E177E2E9
S11307600E94CF08605D6883C80168EE73E00E9450
S1130770CF08CB012AE030E0B9010E94CF08805DA8
S113078089838EE28A83C80164E670E00E94CF0800
S1130790CB01B9010E94CF08805D8B83C801B901E8
S11307A00E94CF08482FCB01B9010E94CF08805D79
S11307B08C83405D4D83DF91CF911F910F910895FC
S11307C00F931F93CF93DF93EC018B01CB010E9416
S11307D00D029E01329522952F7023273F70232707
S11307E0A7E4B3E00E94E3089695879596958795CC
S11307F096958795805DF80180839E0136952795AF
S11308003695279536952795A5ECB0E20E94E30826
S1130810AC01529542954F7045275F7045279A0168
S1130820ADECBCEC0E94E308969587959695879568
S1130830969587959C01220F331F880F991F880F67
S1130840991F880F991F820F931F481B590B405DF6
S113085041839E013695279536952795ABE7B4E1FC
S11308600E94E308AC01569547959A01ADECBCECA7
S11308700E94E30896958795969587959695879512
S11308809C01220F331F880F991F880F991F880F0F
S1130890991F820F931F481B590B405D42838EE2C0
S11308A083839E010E94E308AC01569547955695B3
S11308B04795569547959A010E94E3089695879522
S11308C096958795969587959C01220F331F880FDF
S11308D0991F880F991F880F991F820F931F9A01E0
S11308E0281B390BC901805D8483CA01880F991FB5
S11308F0440F551F440F551F440F551F480F591FD0
S1130900C41BD50BC05DC583DF91CF911F910F919F
S113091008950F931F93CF93DF938C01EB01CB01C9
S11309200E940D02112394F51F778DE28883C8017C
S113093060E177E20E94CF08605D6983C80168EED8
S113094073E00E94CF08CB012AE030E0B9010E9495
S1130950CF08805D8A838EE28B83C80164E670E0F1
S11309600E94CF08CB01B9010E94CF08805D8C831F
S1130970C801B9010E94CF08482FCB01B9010E94D8
S1130980CF08805D8D83405D4E832EC0C80160E139
S113099077E20E94CF08605D6883C80168EE73E067
S11309A00E94CF08CB012AE030E0B9010E94CF08B1
S11309B0805D89838EE28A83C80164E670E00E94C8
S11309C0CF08CB01B9010E94CF08805D8B83C80199
S11309D0B9010E94CF08482FCB01B9010E94CF086A
S11309E0805D8C83405D4D83DF91CF911F910F918A
S11309F008950F931F93CF93DF938C01EB01CB01E9
S1130A000E940D021123A4F58DE2888311950195AE
S1130A101109C80160E177E20E94CF08605D698333
S1130A20C80168EE73E00E94CF08CB012AE030E0F1
S1130A30B9010E94CF08805D8A83C80164E670E032
S1130A400E94CF08CB01B9010E94CF08805D8B833F
S1130A50C801B9010E94CF08482FCB01B9010E94F7
S1130A60CF08805D8C838EE28D83405D4E832EC0E3
S1130A70C80160E177E20E94CF08605D6883C80125
S1130A8068EE73E00E94CF08CB012AE030E0B901A0
S1130A900E94CF08805D8983C80164E670E00E94EB
S1130AA0CF08CB01B9010E94CF08805D8A83C801B9
S1130AB0B9010E94CF08482FCB01B9010E94CF0889
S1130AC0805D8B838EE28C83405D4D83DF91CF917B
S1130AD01F910F910895CF93DF930E940007EC01BB
S1130AE085E290E09983888322E02A839C838B8328
S1130AF021E02D839F838E8325E028879A87898729
S1130B0023E02B879D878C8784E08E87E9E6F0E0DD
S1130B10808182608083E89ACE010E946B07CE01B7
S1130B20DF91CF910895E1E8F0E0808188608083CF
S1130B30AFE6B0E08C9182608C9382E19AE7909367
S1130B4089008093880080818460808308958BE38A
S1130B5091E00E948B0880E291E00E948B088EE471
S1130B6091E00E948B0881E00E944A010E94C10822
S1130B7080E291E00E948B088EE591E00E948B0850
S1130B8086E40E944A010E94C10880E291E00E942A
S1130B908B0880E791E00E948B088BE20E944A0157
S1130BA00E94C10880E291E00E948B0880E891E0F5
S1130BB00E948B088CE20E944A010E94C10880E2D4
S1130BC091E00E948B088DE891E00E948B088BE3F2
S1130BD00E944A010E94C10880E291E00E948B08B1
S1130BE08AE991E00E948B0880E30E944A010E94F6
S1130BF0C10880E291E00E948B0882EC91E00E949F
S1130C008B0881E30E944A010E94C10880E291E0BE
S1130C100E948B0885ED91E00E948B0882E30E947C
S1130C204A010E94C10880E291E00E948B08089565
S1130C30CF93DF93CDB7DEB72A970FB6F894DEBF14
S1130C400FBECDBF8FEE91E00E948B0889E40E9415
S1130C504A01BE016F5F7F4F0E941C02CE010196C4
S1130C600E948B0889EF91E00E948B0888E40E941F
S1130C704A01BE016F5F7F4F0E94C502CE010196FB
S1130C800E948B0880E291E00E948B0885E092E04C
S1130C900E948B088CE40E944A01BE016F5F7F4F63
S1130CA00E94E003CE0101960E948B0881E192E04C
S1130CB00E948B088DE40E944A01BE016F5F7F4F42
S1130CC00E948904CE0101960E948B0881E292E081
S1130CD00E948B088EE40E944A01BE016F5F7F4F21
S1130CE00E94F904CE0101960E948B0880E392E0F1
S1130CF00E948B088AE40E944A01BE016F5F7F4F05
S1130D000E946E03CE0101960E948B0881E492E05A
S1130D100E948B088BE40E944A01BE016F5F7F4FE3
S1130D200E946E03CE0101960E948B0883E592E037
S1130D300E948B088FE40E944A01BE016F5F7F4FBF
S1130D400E946E03CE0101960E948B0885E692E014
S1130D500E948B082A960FB6F894DEBF0FBECDBF53
S1130D60DF91CF9108950E9472080E9453000E945F
S1130D70B7000E94530878940E946B050E94710189
S1130D800E9493050E94BE0060E070E080E090E065
S1130D900E94D40089E692E00E9434010E94A705D3
S1130DA0C0E0D0E08091B4028823E1F30E941806E9
S1130DB082E40E944A011092B402C530D10594F72E
S1130DC02196F0CF1F920F920FB60F9211248F939A
S1130DD081E08093B4028F910F900FBE0F901F900B
S1130DE018951F920F920FB60F9211248F9381E0E2
S1130DF08093B5028F910F900FBE0F901F9018959E
S1130E0080E190E00E94060920E1FC0111922A95FC
S1130E10E9F70895CF92DF92EF92FF920F931F9319
S1130E20CF93DF937C01862F6A018901D701ED916D
S1130E30FC911197908121E030E012960C9002C051
S1130E40220F331F0A94E2F72095292320830E945E
S1130E506C08F70187870115110551F0E6010C0DA7
S1130E601D1D88810E946C088993C017D107C9F79A
S1130E70D701ED91FC911197208181E090E01296C9
S1130E800C90129702C0880F991F0A94E2F7822BE4
S1130E9080831F968C91DF91CF911F910F91FF90CA
S1130EA0EF90DF90CF90089560620E940A07089542
S1130EB0CF93DF931F92CDB7DEB720E7298321E0DC
S1130EC030E0AE014F5F5F4F67E00E9454070F9020
S1130ED0DF91CF910895FF920F931F93CF93DF93E8
S1130EE01F92CDB7DEB78C01DC01ED91FC91119717
S1130EF0429181E090E09C0112960C90129702C0FE
S1130F00220F331F0A94E2F7242B20831396ED91CA
S1130F10FC91149742919C0115960C90159702C070
S1130F20220F331F0A94E2F7242B2083ED91FC91C6
S1130F30119740819C0112960C90129702C0220FC7
S1130F40331F0A94E2F7242B20831396ED91FC912E
S1130F5014973081AC0115960C90159702C0440F7C
S1130F60551F0A94E2F7242F2095232320831696F5
S1130F70ED91FC91179742919C0118960C9018974B
S1130F8002C0220F331F0A94E2F7242B2083199600
S1130F90ED91FC911A9742919C011B960C901B9722
S1130FA002C0220F331F0A94E2F7242B20831C96DD
S1130FB0ED91FC911D9722911E960C9002C0880F12
S1130FC0991F0A94E2F78095822380830CB404FE6F
S1130FD00E94530820E030E040E050E062EEC80197
S1130FE00E940A0720E030E040E050E061EEC801D2
S1130FF00E940A07C8010E9458078FE0898321E0F4
S113100030E0AE014F5F5F4F60E0C8010E945407BB
S11310100F2EFFE3FF2EF02DF98221E030E0AE0128
S11310204F5F5F4F61E0C8010E94540789E08983E4
S113103021E030E0AE014F5F5F4F66E0C8010E94DF
S1131040540780E6898321E030E0AE014F5F5F4FB3
S113105065E0C8010E945407F98221E030E0AE0146
S11310604F5F5F4F6CE1C8010E94540784E089839D
S113107021E030E0AE014F5F5F4F6DE1C8010E9497
S1131080540781E0898321E030E0AE014F5F5F4F78
S113109062E0C8010E9454070F90DF91CF911F9125
S11310A00F91FF9008958CB580618CBD8CB58064E0
S11310B08CBD8CB5877F8CBD8CB58B7F8CBD8CB57E
S11310C081608CBD8CB58D7F8CBD8DB58E7F8DBDC3
S11310D08CB58F7D8CBD08958EBD0DB407FEFDCFFC
S11310E08EB508951092C50083E38093C400E0ECAC
S11310F0F0E080818D7F808388E18093C10086E069
S11311008093C2000895E0ECF0E0908195FFFDCF5C
S11311108093C60008950F931F93CF93FC018081A1
S1131120882359F08F01C0E00E948308CF5FF80143
S1131130EC0FF11D80818111F7CFCF911F910F9199
S113114008958A3010F4805D0895895C0895CF93E2
S1131150C82F80E30E94830888E70E9483088C2FAD
S113116082958F700E94A1080E9483088C2F8F7033
S11311700E94A1080E94830888E40E948308CF91FA
S11311800895CF93C82F892F0E94A7088C2F0E94FF
S1131190A70881EB92E00E948B08CF91089597FBFA
S11311A0072E16F4009407D077FD09D00E94F208A8
S11311B007FC05D03EF4909581959F4F0895709556
S11311C061957F4F0895A29FB001B39FC001A39F73
S11311D0700D811D1124911DB29F700D811D11246C
S11311E0911D0895AA1BBB1B51E107C0AA1FBB1F79
S11311F0A617B70710F0A61BB70B881F991F5A959F
S1131200A9F780959095BC01CD0108950F931F9384
S1131210CF93DF938230910510F482E090E0E09167
S1131220B802F091B90220E030E0A0E0B0E03097DD
S113123019F1408151810281138148175907C8F07F
S11312408417950769F4109731F012960C9312974E
S113125013961C9327C00093B8021093B90222C0BE
S11312602115310519F04217530718F49A01BD01ED
S1131270EF01DF01F801DBCF21153105F9F0281B5F
S1131280390B2430310580F48A819B816115710505
S113129021F0FB019383828304C09093B90280936D
S11312A0B802FE01329644C0FE01E20FF31F81939F
S11312B0919322503109398328833AC02091B60290
S11312C03091B702232B41F42091020130910301A4
S11312D03093B7022093B6022091000130910101AE
S11312E02115310541F42DB73EB7409104015091C9
S11312F00501241B350BE091B602F091B702E21709
S1131300F307A0F42E1B3F0B2817390778F0AC0124
S11313104E5F5F4F2417350748F04E0F5F1F509301
S1131320B7024093B6028193919302C0E0E0F0E0EB
S1131330CF01DF91CF911F910F910895CF93DF9348
S1131340009709F481C0FC01329713821282A091A4
S1131350B802B091B902109781F420813181820FD3
S1131360931F2091B6023091B7022817390751F51F
S1131370F093B702E093B60267C0ED0120E030E0DD
S1131380CE17DF0740F44A815B819E014115510568
S1131390F1F0EA01F5CFD383C28340815181840FF8
S11313A0951FC817D90759F488819981840F951F0F
S11313B00296918380838A819B8193838283211502
S11313C0310529F4F093B902E093B8023DC0E90174
S11313D0FB83EA8349915991C40FD51FEC17FD078C
S11313E061F480819181840F951F0296E9019983AC
S11313F08883828193819B838A83E0E0F0E0129664
S11314008D919C911397009719F0FD01DC01F7CFA2
S11314108D919C9111979D012E5F3F4F820F931FD9
S11314202091B6023091B7022817390769F4309732
S113143029F41092B9021092B80202C013821282E7
S1131440B093B702A093B602DF91CF910895F894B8
S1051450FFCFC8
S11314520000BA0220005472616E736D697474697B
S11314626E67206F6E204368616E6E656C3A200071
S11314720D0A005246205365742075702056616C23
S113148275653A2000202020002F00506F77657286
S11314922049432053657474696E67733A00537923
S11314A27374656D205374617475733A20004D65CD
S11314B2746572696E67205374617475733A20009F
S11314C24D65746572696E67204D6F64653A2000DC
S11314D2436865636B73756D20313A200043686518
S11314E2636B73756D20323A20004D6561737572BA
S11314F2656D656E742043616C6962726174696FB3
S11315026E20537461727420436F6D6D616E643A20
S11315122000566F6C7461676520524D53204761F9
S1131522696E3A20004C204C696E652043757272D4
S1131532656E7420524D53204761696E3A200056FD
S11315426F6C746167653A200009094375727265AC
S11315526E743A20004672657175656E63793A203D
S11315620009506F77657220466163746F723A2086
S11315720009506861736520416E676C653A20000A
S11315820A0D41637469766520506F7765723A205B
S11315920009526561637469766520506F776572DC
S11315A23A2000094162736F6C75746520506F773D
S11315B265723A20000D0A0A005374617274696EEE
S11315C2672050726F6772616D2100563A200020C5
S11315D2493A2000465245513A20002050463A20CA
S11315E200205020416E676C653A200041503A2039
S11315F2002052503A200020414253503A20002DFC
S10716020048000098
S9030000FC
