:100000000C9434000C944F010C9451000C9451004A
:100010000C9451000C9451000C9451000C9451001C
:100020000C9451000C9451000C9451000C9440011C
:100030000C9451000C9451000C9451000C945100FC
:100040000C9451000C9451000C9451000C945100EC
:100050000C9451000C9451000C9451000C945100DC
:100060000C9451000C94510011241FBECFEFD8E026
:10007000DEBFCDBF12E0A0E0B1E0E6ECF9E002C0E7
:1000800005900D92A035B107D9F722E0A0E5B2E0C6
:1000900001C01D92A635B207E1F70E9426010C941B
:1000A000E1040C94000080E28093B800ECEBF0E0F7
:1000B0008081846080830895209A289A0CB404FE7D
:1000C0000E94B1020895CF93289880680E94CA02C6
:1000D00080E00E94CA02C82F80E00E94CA02289ACB
:1000E0002C2F30E0322F2227A901482BCA01CF91B3
:1000F0000895CF93DF930E945E01EC0185E290E0CA
:100100009983888322E02A839C838B8321E02D833B
:100110009F838E8325E028879A87898723E02B8712
:100120009D878C8784E08E87E9E6F0E0808182609D
:100130008083E89ACE010E94C901CE01DF91CF9160
:100140000895E1E8F0E0808188608083AFE6B0E068
:100150008C9182608C9382E19AE7909389008093DE
:10016000880080818460808308958EE391E00E94FE
:10017000E90283E092E00E94E90281E591E00E94B9
:10018000E90281E00E9463000E94FF0283E092E0A6
:100190000E94E90281E691E00E94E90286E40E9461
:1001A00063000E94FF0283E092E00E94E90283E77D
:1001B00091E00E94E9028BE20E9463000E94FF022C
:1001C00083E092E00E94E90283E891E00E94E90264
:1001D0008CE20E9463000E94FF0283E092E00E9492
:1001E000E90280E991E00E94E9028BE30E9463004A
:1001F0000E94FF0283E092E00E94E9028DE991E013
:100200000E94E90280E30E9463000E94FF0283E0F3
:1002100092E00E94E90285EC91E00E94E90281E30C
:100220000E9463000E94FF0283E092E00E94E902C4
:1002300088ED91E00E94E90282E30E9463000E943F
:10024000FF0283E092E00E94E90208950E94D0023A
:100250000E9453000E94B10278940E9479000E948B
:100260005C000E94A10082EF91E00E94E9020E94DE
:10027000B500809150028823E1F310925002F9CF2B
:100280001F920F920FB60F9211248F9381E08093EB
:1002900050028F910F900FBE0F901F9018951F92D4
:1002A0000F920FB60F9211248F9381E08093510229
:1002B0008F910F900FBE0F901F90189580E190E0E6
:1002C0000E94C00320E1FC0111922A95E9F70895EC
:1002D000CF92DF92EF92FF920F931F93CF93DF9312
:1002E0007C01862F6A018901D701ED91FC9111975C
:1002F000908121E030E012960C9002C0220F331F53
:100300000A94E2F72095292320830E94CA02F7016C
:1003100087870115110551F0E6010C0D1D1D88811F
:100320000E94CA028993C017D107C9F7D701ED917E
:10033000FC911197208181E090E012960C90129729
:1003400002C0880F991F0A94E2F7822B80831F96C0
:100350008C91DF91CF911F910F91FF90EF90DF90E3
:10036000CF90089560620E9468010895CF93DF9353
:100370001F92CDB7DEB720E7298321E030E0AE0140
:100380004F5F5F4F67E00E94B2010F90DF91CF9106
:100390000895FF920F931F93CF93DF931F92CDB7D2
:1003A000DEB78C01DC01ED91FC911197429181E067
:1003B00090E09C0112960C90129702C0220F331FFE
:1003C0000A94E2F7242B20831396ED91FC91149765
:1003D00042919C0115960C90159702C0220F331F75
:1003E0000A94E2F7242B2083ED91FC911197408130
:1003F0009C0112960C90129702C0220F331F0A9490
:10040000E2F7242B20831396ED91FC911497308111
:10041000AC0115960C90159702C0440F551F0A9415
:10042000E2F7242F2095232320831696ED91FC914B
:10043000179742919C0118960C90189702C0220FB2
:10044000331F0A94E2F7242B20831996ED91FC9137
:100450001A9742919C011B960C901B9702C0220F89
:10046000331F0A94E2F7242B20831C96ED91FC9114
:100470001D9722911E960C9002C0880F991F0A9416
:10048000E2F78095822380830CB404FE0E94B102BF
:1004900020E030E040E050E062EEC8010E946801D8
:1004A00020E030E040E050E061EEC8010E946801C9
:1004B000C8010E94B6018FE0898321E030E0AE01DF
:1004C0004F5F5F4F60E0C8010E94B2010F2EFFE353
:1004D000FF2EF02DF98221E030E0AE014F5F5F4F3B
:1004E00061E0C8010E94B20189E0898321E030E027
:1004F000AE014F5F5F4F66E0C8010E94B20180E627
:10050000898321E030E0AE014F5F5F4F65E0C801B5
:100510000E94B201F98221E030E0AE014F5F5F4FEF
:100520006CE1C8010E94B20184E0898321E030E0DF
:10053000AE014F5F5F4F6DE1C8010E94B20181E0E3
:10054000898321E030E0AE014F5F5F4F62E0C80178
:100550000E94B2010F90DF91CF911F910F91FF90F8
:1005600008958CB580618CBD8CB580648CBD8CB5D4
:10057000877F8CBD8CB58B7F8CBD8CB581608CBD2D
:100580008CB58D7F8CBD8DB58E7F8DBD8CB58F7DEF
:100590008CBD08958EBD0DB407FEFDCF8EB50895B8
:1005A0001092C50083E38093C400E0ECF0E080810A
:1005B0008D7F808388E18093C10086E08093C200B4
:1005C0000895E0ECF0E0908195FFFDCF8093C600A8
:1005D00008950F931F93CF93FC018081882359F0D6
:1005E0008F01C0E00E94E102CF5FF801EC0FF11D26
:1005F00080818111F7CFCF911F910F9108950F93B3
:100600001F93CF93DF938C019C01329522952F701D
:1006100023273F702327A7E4B3E00E94B1039695F8
:1006200087959695879596958795805D0E94E102BE
:100630009801369527953695279536952795A5ECFB
:10064000B0E20E94B103AC01529542954F7045272C
:100650005F7045279A01ADECBCEC0E94B103969502
:10066000879596958795969587959C01220F331FC0
:10067000880F991F880F991F880F991F820F931F4A
:100680009A01281B390BC901805D0E94E1028DE4AB
:1006900092E00E94E90298013695279536952795B4
:1006A000ABE7B4E10E94B103AC01569547959A01BE
:1006B000ADECBCEC0E94B103969587959695879515
:1006C000969587959C01220F331F880F991F880FDD
:1006D000991F880F991F820F931F9A01281B390BAE
:1006E000C901805D0E94E1029801ADECBCEC0E9462
:1006F000B103EC01D695C795D695C795D695C79504
:100700009E010E94B103969587959695879596953B
:1007100087959C01220F331F880F991F880F991FFF
:10072000880F991F820F931F9E01281B390BC90147
:10073000805D0E94E102CE01880F991FCC0FDD1F62
:10074000CC0FDD1FCC0FDD1FC80FD91FC8018C1BBC
:100750009D0B805D0E94E102DF91CF911F910F916F
:100760000895A29FB001B39FC001A39F700D811D8A
:100770001124911DB29F700D811D1124911D0895AA
:100780000F931F93CF93DF938230910510F482E093
:1007900090E0E0915402F091550220E030E0A0E0BA
:1007A000B0E0309719F140815181028113814817DF
:1007B0005907C8F08417950769F4109731F012961D
:1007C0000C93129713961C9327C000935402109316
:1007D000550222C02115310519F04217530718F4AC
:1007E0009A01BD01EF01DF01F801DBCF21153105D1
:1007F000F9F0281B390B2430310580F48A819B8164
:100800006115710521F0FB019383828304C09093ED
:10081000550280935402FE01329644C0FE01E20F5D
:10082000F31F8193919322503109398328833AC071
:100830002091520230915302232B41F42091020166
:100840003091030130935302209352022091000112
:10085000309101012115310541F42DB73EB740918A
:10086000040150910501241B350BE0915202F091D7
:100870005302E217F307A0F42E1B3F0B281739078A
:1008800078F0AC014E5F5F4F2417350748F04E0FEC
:100890005F1F50935302409352028193919302C081
:1008A000E0E0F0E0CF01DF91CF911F910F9108952B
:1008B000CF93DF93009709F481C0FC013297138234
:1008C0001282A0915402B0915502109781F42081B8
:1008D0003181820F931F20915202309153022817C9
:1008E000390751F5F0935302E093520267C0ED01CE
:1008F00020E030E0CE17DF0740F44A815B819E01A3
:1009000041155105F1F0EA01F5CFD383C28340814F
:100910005181840F951FC817D90759F4888199818F
:10092000840F951F0296918380838A819B81938394
:1009300082832115310529F4F0935502E093540286
:100940003DC0E901FB83EA8349915991C40FD51F4A
:10095000EC17FD0761F480819181840F951F029649
:10096000E90199838883828193819B838A83E0E074
:10097000F0E012968D919C911397009719F0FD016C
:10098000DC01F7CF8D919C9111979D012E5F3F4F18
:10099000820F931F2091520230915302281739077A
:1009A00069F4309729F4109255021092540202C053
:1009B00013821282B0935302A0935202DF91CF911F
:0609C0000895F894FFCF3A
:1009C6000000560220005472616E736D697474697A
:1009D6006E67206F6E204368616E6E656C3A2030DC
:1009E6007800480D0A005246205365742075702021
:1009F60056616C75653A2000202020002F00506F4C
:100A06007765722049432053657474696E67733A3B
:100A16000053797374656D205374617475733A204D
:100A2600004D65746572696E6720537461747573E1
:100A36003A20004D65746572696E67204D6F646576
:100A46003A2000436865636B73756D20313A200068
:100A5600436865636B73756D20323A20004D65619E
:100A6600737572656D656E742043616C696272613F
:100A760074696F6E20537461727420436F6D6D617B
:100A86006E643A2000566F6C7461676520524D5350
:100A9600204761696E3A20004C204C696E65204300
:100AA600757272656E7420524D53204761696E3AB5
:100AB60020005374617274696E672050726F67729A
:100AC600616D210D0A00566F6C746167653A2000EE
:100AD6000943757272656E743A2000092041637489
:100AE60069766520506F7765723A2000094672650F
:100AF6007175656E63793A200009506F77657220CB
:100B0600466163746F723A20000D0A0A002E0000D7
:00000001FF
