S0120000506F7765724D657465722E7372656308
S11300000C9434000C94EF060C9451000C945100A1
S11300100C9451000C9451000C9451000C94510018
S11300200C9451000C9451000C9451000C94E00673
S11300300C9451000C9451000C9451000C945100F8
S11300400C9451000C9451000C9451000C945100E8
S11300500C9451000C9451000C9451000C945100D8
S11300600C9451000C94510011241FBECFEFD8E022
S1130070DEBFCDBF12E0A0E0B1E0E2EFF3E102C0E9
S113008005900D92A23BB107D9F722E0A2EBB2E0B2
S113009001C01D92A83BB207E1F70E94B1060C947F
S11300A0F7090C94000080E28093B800ECEBF0E0D8
S11300B08081846080830895ECEBF0E08081882364
S11300C0ECF7089584EA8093BC000E945C000895D4
S11300D084E98093BC0008958093BB0084E88093F6
S11300E0BC000E945C000895CF93C82F0E94620058
S11300F08EE70E946C008C2F0E946C008C2F846011
S11301000E946C008C2F8B7F0E946C000E94680000
S1130110CF91089580E30E94740080E30E947400EC
S113012080E30E94740080E20E947400089580E2DB
S11301300E94740080E80E94740080E00E947400B1
S113014080E80E94740080E00E94740080E10E94B4
S1130150740080E00E94740080E60E947400089598
S113016088E00E94740088EF0E94740008950E9441
S11301708A000E9497000E94B000089588E00E94BF
S1130180740088E10E9474000895CF93C82F807F83
S113019089600E94740020E1C29FC001112489601B
S11301A00E947400CF910895CF93DF93843091051A
S11301B014F083E090E0C62FD72FC531D10514F099
S11301C0C4E1D0E0009781F48C2F807F88680E947E
S11301D07400CE0182959295907F9827807F98270E
S11301E088600E9474003DC08130910589F48C2F91
S11301F0805C807F88680E947400CE01829592950D
S1130200907F9827807F982788600E94740029C077
S11302108230910591F48C2F8C5E807F88680E94D7
S11302207400CE01449682959295907F9827807FA2
S1130230982788600E94740014C0039791F48C2F4F
S11302408C5A807F88680E947400CE018C5A9F4F1C
S113025082959295907F9827807F982788600E9446
S11302607400DF91CF9108950F931F93CF93FC01F6
S11302708081882359F08F01C0E00E94C500CF5FC0
S1130280F801EC0FF11D80818111F7CFCF911F91FF
S11302900F910895CF93289880680E946A0880E09F
S11302A00E946A08C82F80E00E946A08289A2C2FAE
S11302B030E0322F2227A901482BCA01CF9108959B
S11302C0CF93DF93C62FD72F28980E946A088D2FCB
S11302D00E946A088C2F0E946A08289ADF91CF91A5
S11302E00895CF93DF93209A289A0CB404FE0E94B9
S11302F0510868E776E580E20E94600160E370E0FF
S113030081E20E94600163ED73EB82E20E9460016E
S113031060E070E083E20E94600160E070E084E2EB
S11303200E94600160E070E085E20E94600160E08C
S113033070E086E20E9460016DEB78E087E20E9443
S1130340600160E070E088E20E9460016CEE7AE097
S113035089E20E94600160E070E08AE20E9460012C
S113036062E274E38BE20E9460018CE20E944A0123
S1130370BC018CE20E94600165E677E880E20E949D
S1130380600168E776E580E30E94600161E675E854
S113039081E30E9460016CE17DE382E30E946001DD
S11303A060E375E783E30E94600160E070E084E34A
S11303B00E94600160E070E085E30E94600160E0FB
S11303C070E086E30E94600160E070E087E30E94D1
S11303D0600160E070E088E30E94600160E070E02A
S11303E089E30E94600160E070E08AE30E9460019A
S11303F08BE30E944A01EC0160E070E08BE30E9411
S11304006001BE018BE30E94600165E677E880E34A
S11304100E946001DF91CF910895DC018C918823C3
S113042051F0FD0190E010829F5FFD01E90FF11D85
S113043020812111F8CF08950F931F93CF93DF9359
S1130440EC018B01CB010E940D029E013295229595
S11304502F7023273F702327A7E4B3E00E94B3083B
S1130460969587959695879596958795805DF801DD
S113047080839E0136952795369527953695279541
S1130480A5ECB0E20E94B308AC01529542954F70BE
S113049045275F7045279A01ADECBCEC0E94B30878
S11304A09695879596958795969587959C01220FA5
S11304B0331F880F991F880F991F880F991F820F68
S11304C0931F481B590B405D41839E013695279528
S11304D036952795ABE7B4E10E94B308AC01569575
S11304E047959A01ADECBCEC0E94B30896958795AC
S11304F096958795969587959C01220F331F880FB3
S1130500991F880F991F880F991F820F931F481BEB
S1130510590B405D42838EE283839E010E94B3089F
S1130520AC015695479556954795569547959A012A
S11305300E94B30896958795969587959695879585
S11305409C01220F331F880F991F880F991F880F52
S1130550991F820F931F9A01281B390BC901805DD3
S11305608483CA01880F991F440F551F440F551FD8
S1130570440F551F480F591FC41BD50BC05DC583BD
S1130580DF91CF911F910F9108950F931F93CF93F4
S1130590DF93EC018B01CB010E940D029E01329589
S11305A022952F7023273F702327A7E4B3E00E94EE
S11305B0B308969587959695879596958795805DCA
S11305C0F80180839E0136952795369527953695B3
S11305D02795A5ECB0E20E94B308AC015295429570
S11305E04F7045275F7045279A01ADECBCEC0E9423
S11305F0B3089695879596958795969587959C01CA
S1130600220F331F880F991F880F991F880F991F76
S1130610820F931F481B590B405D41838EE28283F6
S11306209E013695279536952795ABE7B4E10E9450
S1130630B308AC01569547959A01ADECBCEC0E9409
S1130640B3089695879596958795969587959C0179
S1130650220F331F880F991F880F991F880F991F26
S1130660820F931F481B590B405D43839E010E94D8
S1130670B308AC01569547955695479556954795B9
S11306809A010E94B30896958795969587959695B5
S113069087959C01220F331F880F991F880F991F7C
S11306A0880F991F820F931F9A01281B390BC901C8
S11306B0805D8483CA01880F991F440F551F440F1E
S11306C0551F440F551F480F591FC41BD50BC05D40
S11306D0C583DF91CF911F910F9108950F931F93BD
S11306E0CF93DF938C01EB01CB010E940D02112308
S11306F0A4F58DE28883119501951109C80160E183
S113070077E20E949F08605D6983C80168EE73E028
S11307100E949F08CB012AE030E0B9010E949F08A3
S1130720805D8A838EE28B83C80164E670E00E9458
S11307309F08CB01B9010E949F08805D8C83C8018A
S1130740B9010E949F08482FCB01B9010E949F085C
S1130750805D8D83405D4E832EC0C80160E177E2E9
S11307600E949F08605D6883C80168EE73E00E9480
S11307709F08CB012AE030E0B9010E949F08805D08
S113078089838EE28A83C80164E670E00E949F0830
S1130790CB01B9010E949F08805D8B83C801B90118
S11307A00E949F08482FCB01B9010E949F08805DD9
S11307B08C83405D4D83DF91CF911F910F910895FC
S11307C00F931F93CF93DF93EC018B01CB010E9416
S11307D00D029E01329522952F7023273F70232707
S11307E0A7E4B3E00E94B3089695879596958795FC
S11307F096958795805DF80180839E0136952795AF
S11308003695279536952795A5ECB0E20E94B30856
S1130810AC01529542954F7045275F7045279A0168
S1130820ADECBCEC0E94B308969587959695879598
S1130830969587959C01220F331F880F991F880F67
S1130840991F880F991F820F931F481B590B405DF6
S113085041839E013695279536952795ABE7B4E1FC
S11308600E94B308AC01569547959A01ADECBCECD7
S11308700E94B30896958795969587959695879542
S11308809C01220F331F880F991F880F991F880F0F
S1130890991F820F931F481B590B405D42838EE2C0
S11308A083839E010E94B308AC01569547955695E3
S11308B04795569547959A010E94B3089695879552
S11308C096958795969587959C01220F331F880FDF
S11308D0991F880F991F880F991F820F931F9A01E0
S11308E0281B390BC901805D8483CA01880F991FB5
S11308F0440F551F440F551F440F551F480F591FD0
S1130900C41BD50BC05DC583DF91CF911F910F919F
S113091008950F931F93CF93DF938C01EB01CB01C9
S11309200E940D02112394F51F778DE28883C8017C
S113093060E177E20E949F08605D6983C80168EE08
S113094073E00E949F08CB012AE030E0B9010E94C5
S11309509F08805D8A838EE28B83C80164E670E021
S11309600E949F08CB01B9010E949F08805D8C837F
S1130970C801B9010E949F08482FCB01B9010E9408
S11309809F08805D8D83405D4E832EC0C80160E169
S113099077E20E949F08605D6883C80168EE73E097
S11309A00E949F08CB012AE030E0B9010E949F0811
S11309B0805D89838EE28A83C80164E670E00E94C8
S11309C09F08CB01B9010E949F08805D8B83C801F9
S11309D0B9010E949F08482FCB01B9010E949F08CA
S11309E0805D8C83405D4D83DF91CF911F910F918A
S11309F008950F931F93CF93DF938C01EB01CB01E9
S1130A000E940D021123A4F58DE2888311950195AE
S1130A101109C80160E177E20E949F08605D698363
S1130A20C80168EE73E00E949F08CB012AE030E021
S1130A30B9010E949F08805D8A83C80164E670E062
S1130A400E949F08CB01B9010E949F08805D8B839F
S1130A50C801B9010E949F08482FCB01B9010E9427
S1130A609F08805D8C838EE28D83405D4E832EC013
S1130A70C80160E177E20E949F08605D6883C80155
S1130A8068EE73E00E949F08CB012AE030E0B901D0
S1130A900E949F08805D8983C80164E670E00E941B
S1130AA09F08CB01B9010E949F08805D8A83C80119
S1130AB0B9010E949F08482FCB01B9010E949F08E9
S1130AC0805D8B838EE28C83405D4D83DF91CF917B
S1130AD01F910F910895CF93DF930E94FE06EC01BE
S1130AE085E290E09983888322E02A839C838B8328
S1130AF021E02D839F838E8325E028879A87898729
S1130B0023E02B879D878C8784E08E87E9E6F0E0DD
S1130B10808182608083E89ACE010E946907CE01B9
S1130B20DF91CF910895E1E8F0E0808188608083CF
S1130B30AFE6B0E08C9182608C9388E09DE3909363
S1130B408900809388008081836080830895CF9397
S1130B50DF93CDB7DEB72A970FB6F894DEBF0FBE8A
S1130B60CDBF87E092E00E94890889E40E944A018F
S1130B70BE016F5F7F4F0E941C02CE0101960E944E
S1130B80890881E192E00E94890888E40E944A0170
S1130B90BE016F5F7F4F0E94C502CE0101960E9485
S1130BA0890880E291E00E9489088DE192E00E9428
S1130BB089088CE40E944A01BE016F5F7F4F0E9446
S1130BC0E003CE0101960E94890889E292E00E9426
S1130BD089088DE40E944A01BE016F5F7F4F0E9425
S1130BE08904CE0101960E94890889E392E00E945B
S1130BF089088EE40E944A01BE016F5F7F4F0E9404
S1130C00F904CE0101960E94890888E492E00E94CA
S1130C1089088AE40E944A01BE016F5F7F4F0E94E7
S1130C206E03CE0101960E94890889E592E00E9434
S1130C3089088BE40E944A01BE016F5F7F4F0E94C6
S1130C406E03CE0101960E9489088BE692E00E9411
S1130C5089088FE40E944A01BE016F5F7F4F0E94A2
S1130C606E03CE0101960E9489088DE792E00E94EE
S1130C7089082A960FB6F894DEBF0FBECDBFDF9168
S1130C80CF910895CF93DF93CDB7DEB72A970FB6F0
S1130C90F894DEBF0FBECDBF0E94BE000E94BE000E
S1130CA060E070E080E090E00E94D40081E892E08F
S1130CB00E94340189E40E944A01BE016F5F7F4FA4
S1130CC00E941C02CE0101960E94340160E070E093
S1130CD081E090E00E94D40088E892E00E94340110
S1130CE088E40E944A01BE016F5F7F4F0E94C502E3
S1130CF0CE0101960E94340160E070E082E090E051
S1130D000E94D4008FE892E00E9434018BE40E9498
S1130D104A01BE016F5F7F4F0E946E03CE010196B0
S1130D200E94340160E070E083E090E00E94D4000F
S1130D3085E992E00E9434018EE40E944A01BE01DA
S1130D406F5F7F4F0E94F904CE0101960E94340127
S1130D502A960FB6F894DEBF0FBECDBFDF91CF91B8
S1130D6008950E9470080E9453000E94B7000E94D8
S1130D70510878940E946B050E9471010E949305AA
S1130D800E94BE0060E070E080E090E00E94D40029
S1130D908FE992E00E943401C0E0D0E08091B20279
S1130DA08823E1F30E9442060E94A70582E40E9480
S1130DB04A011092B202C530D10584F72196EECFD4
S1130DC01F920F920FB60F9211248F9381E080939C
S1130DD0B2028F910F900FBE0F901F9018951F9223
S1130DE00F920FB60F9211248F9381E08093B30278
S1130DF08F910F900FBE0F901F90189580E190E097
S1130E000E94D60820E1FC0111922A95E9F7089581
S1130E10CF92DF92EF92FF920F931F93CF93DF93C2
S1130E207C01862F6A018901D701ED91FC9111970C
S1130E30908121E030E012960C9002C0220F331F03
S1130E400A94E2F72095292320830E946A08F70177
S1130E5087870115110551F0E6010C0D1D1D8881D0
S1130E600E946A088993C017D107C9F7D701ED9189
S1130E70FC911197208181E090E012960C901297DA
S1130E8002C0880F991F0A94E2F7822B80831F9671
S1130E908C91DF91CF911F910F91FF90EF90DF9094
S1130EA0CF90089560620E9408070895CF93DF935E
S1130EB01F92CDB7DEB720E7298321E030E0AE01F1
S1130EC04F5F5F4F67E00E9452070F90DF91CF9111
S1130ED00895FF920F931F93CF93DF931F92CDB783
S1130EE0DEB78C01DC01ED91FC911197429181E018
S1130EF090E09C0112960C90129702C0220F331FAF
S1130F000A94E2F7242B20831396ED91FC91149715
S1130F1042919C0115960C90159702C0220F331F25
S1130F200A94E2F7242B2083ED91FC9111974081E0
S1130F309C0112960C90129702C0220F331F0A9440
S1130F40E2F7242B20831396ED91FC9114973081C2
S1130F50AC0115960C90159702C0440F551F0A94C6
S1130F60E2F7242F2095232320831696ED91FC91FC
S1130F70179742919C0118960C90189702C0220F63
S1130F80331F0A94E2F7242B20831996ED91FC91E8
S1130F901A9742919C011B960C901B9702C0220F3A
S1130FA0331F0A94E2F7242B20831C96ED91FC91C5
S1130FB01D9722911E960C9002C0880F991F0A94C7
S1130FC0E2F78095822380830CB404FE0E945108CA
S1130FD020E030E040E050E062EEC8010E940807E3
S1130FE020E030E040E050E061EEC8010E940807D4
S1130FF0C8010E9456078FE0898321E030E0AE01EA
S11310004F5F5F4F60E0C8010E9452070F2EFFE35D
S1131010FF2EF02DF98221E030E0AE014F5F5F4FEB
S113102061E0C8010E94520789E0898321E030E031
S1131030AE014F5F5F4F66E0C8010E94520780E631
S1131040898321E030E0AE014F5F5F4F65E0C80166
S11310500E945207F98221E030E0AE014F5F5F4FFA
S11310606CE1C8010E94520784E0898321E030E0EA
S1131070AE014F5F5F4F6DE1C8010E94520781E0EE
S1131080898321E030E0AE014F5F5F4F62E0C80129
S11310900E9452070F90DF91CF911F910F91FF9003
S11310A008958CB580618CBD8CB580648CBD8CB585
S11310B0877F8CBD8CB58B7F8CBD8CB581608CBDDE
S11310C08CB58D7F8CBD8DB58E7F8DBD8CB58F7DA0
S11310D08CBD08958EBD0DB407FEFDCF8EB5089569
S11310E01092C5008CE08093C400E0ECF0E08081B5
S11310F08260808388E18093C10086E08093C2008F
S11311000895E0ECF0E0908195FFFDCF8093C60058
S113111008950F931F93CF93FC018081882359F086
S11311208F01C0E00E948108CF5FF801EC0FF11D30
S113113080818111F7CFCF911F910F91089597FB73
S1131140072E16F4009407D077FD09D00E94C20838
S113115007FC05D03EF4909581959F4F08957095B6
S113116061957F4F0895A29FB001B39FC001A39FD3
S1131170700D811D1124911DB29F700D811D1124CC
S1131180911D0895AA1BBB1B51E107C0AA1FBB1FD9
S1131190A617B70710F0A61BB70B881F991F5A95FF
S11311A0A9F780959095BC01CD0108950F931F93E5
S11311B0CF93DF938230910510F482E090E0E091C8
S11311C0B602F091B70220E030E0A0E0B0E0309742
S11311D019F1408151810281138148175907C8F0E0
S11311E08417950769F4109731F012960C931297AF
S11311F013961C9327C00093B6021093B70222C023
S11312002115310519F04217530718F49A01BD014D
S1131210EF01DF01F801DBCF21153105F9F0281BBF
S1131220390B2430310580F48A819B816115710565
S113123021F0FB019383828304C09093B7028093CF
S1131240B602FE01329644C0FE01E20FF31F819301
S1131250919322503109398328833AC02091B402F2
S11312603091B502232B41F4209102013091030106
S11312703093B5022093B402209100013091010112
S11312802115310541F42DB73EB740910401509129
S11312900501241B350BE091B402F091B502E2176D
S11312A0F307A0F42E1B3F0B2817390778F0AC0185
S11312B04E5F5F4F2417350748F04E0F5F1F509362
S11312C0B5024093B4028193919302C0E0E0F0E050
S11312D0CF01DF91CF911F910F910895CF93DF93A9
S11312E0009709F481C0FC01329713821282A09105
S11312F0B602B091B702109781F420813181820F38
S1131300931F2091B4023091B5022817390751F583
S1131310F093B502E093B40267C0ED0120E030E041
S1131320CE17DF0740F44A815B819E0141155105C8
S1131330F1F0EA01F5CFD383C28340815181840F58
S1131340951FC817D90759F488819981840F951F6F
S11313500296918380838A819B8193838283211562
S1131360310529F4F093B702E093B6023DC0E901D8
S1131370FB83EA8349915991C40FD51FEC17FD07EC
S113138061F480819181840F951F0296E90199830C
S11313908883828193819B838A83E0E0F0E01296C4
S11313A08D919C911397009719F0FD01DC01F7CF03
S11313B08D919C9111979D012E5F3F4F820F931F3A
S11313C02091B4023091B5022817390769F4309797
S11313D029F41092B7021092B60202C0138212824C
S11313E0B093B502A093B402DF91CF910895F8941D
S10513F0FFCF29
S11313F20000B80220005472616E736D69747469DE
S11314026E67206F6E204368616E6E656C3A2000D1
S11314120D0A005246205365742075702056616C83
S113142275653A20005246204368616E6E656C3AD7
S113143220002F00506F7765722049432053657452
S113144274696E67733A0053797374656D205374CB
S1131452617475733A20004D65746572696E672014
S11314625374617475733A20004D65746572696EC4
S113147267204D6F64653A2000436865636B73753A
S11314826D20313A2000436865636B73756D2032B9
S11314923A20004D6561737572656D656E74204303
S11314A2616C6962726174696F6E205374617274E3
S11314B220436F6D6D616E643A2000566F6C7461E7
S11314C2676520524D53204761696E3A20004C20D3
S11314D24C696E652043757272656E7420524D5369
S11314E2204761696E3A200053533A20004D533A23
S11314F220004D4D3A2000566F6C746167653A20A6
S113150200090943757272656E743A200046726569
S11315127175656E63793A200009506F77657220A0
S1131522466163746F723A200009506861736520E2
S1131532416E676C653A20000A0D416374697665F1
S113154220506F7765723A200009526561637469AD
S1131552766520506F7765723A2000094162736F95
S11315626C75746520506F7765723A20000D0A0A13
S113157200563A2020202000493A20202020005200
S1131582503A2020005020416E676C653A20005387
S113159274617274696E672050726F6772616D2133
S10515A2000043
S9030000FC
