S0120000506F7765724D657465722E7372656308
S11300000C9434000C9443050C9451000C9451004E
S11300100C9451000C9451000C9451000C94510018
S11300200C9451000C9451000C9451000C94340520
S11300300C9451000C9451000C9451000C945100F8
S11300400C9451000C9451000C9451000C945100E8
S11300500C9451000C9451000C9451000C945100D8
S11300600C9451000C94510011241FBECFEFD8E022
S1130070DEBFCDBF12E0A0E0B1E0E6EFF1E102C0E7
S113008005900D92A036B107D9F722E0A0E6B2E0C0
S113009001C01D92A636B207E1F70E9418050C9420
S11300A0F9080C94000080E28093B800ECEBF0E0D7
S11300B08081846080830895CF93289880680E940B
S11300C0BE0680E00E94BE06C82F80E00E94BE06E5
S11300D0289A2C2F30E0322F2227A901482BCA015D
S11300E0CF910895CF93DF93C62FD72F28980E94DE
S11300F0BE068D2F0E94BE068C2F0E94BE06289A33
S1130100DF91CF910895209A289A0CB404FE0E949E
S1130110A50668E776E580E20E94720065E170E07A
S113012081E20E94720064E771ED82E20E94720033
S113013060E070E083E20E94720060E070E084E2BC
S11301400E94720060E070E085E20E94720060E04C
S113015070E086E20E9472006DEB78E087E20E9414
S1130160720060E070E088E20E9472006CEE7AE057
S113017089E20E94720060E070E08AE20E947200EC
S113018062E274E98BE20E94720060E070E08CE24B
S11301900E94720068E776E580E30E947200089589
S11301A00F931F93CF93DF938C019C01329522957B
S11301B02F7023273F702327A7E4B3E00E94B507DD
S11301C0969587959695879596958795805D0E94D7
S11301D0D506980136952795369527953695279512
S11301E0A5ECB0E20E94B507AC01529542954F7060
S11301F045275F7045279A01ADECBCEC0E94B5071A
S11302009695879596958795969587959C01220F47
S1130210331F880F991F880F991F880F991F820F0A
S1130220931F9A01281B390BC901805D0E94D506D2
S113023098013695279536952795ABE7B4E10E944A
S1130240B507AC01569547959A01ADECBCEC0E94FC
S1130250B5079695879596958795969587959C016C
S1130260220F331F880F991F880F991F880F991F1A
S1130270820F931F9A01281B390BC901805D0E94CC
S1130280D50686E091E00E94DD069801ADECBCEC59
S11302900E94B507EC01D695C795D695C795D69516
S11302A0C7959E010E94B507969587959695879563
S11302B0969587959C01220F331F880F991F880FED
S11302C0991F880F991F820F931F9E01281B390BBA
S11302D0C901805D0E94D506CE01880F991FCC0FFD
S11302E0DD1FCC0FDD1FCC0FDD1FC80FD91FC801C8
S11302F08C1B9D0B805D0E94D506DF91CF911F91D1
S11303000F9108950F931F93CF93DF938C019C015A
S1130310329522952F7023273F702327A7E4B3E05B
S11303200E94B50796958795969587959695879596
S1130330805D0E94D50698013695279536952795B8
S113034036952795A5ECB0E20E94B507AC0152950D
S113035042954F7045275F7045279A01ADECBCEC80
S11303600E94B50796958795969587959695879556
S11303709C01220F331F880F991F880F991F880F24
S1130380991F820F931F9A01281B390BC901805DA5
S11303900E94D50686E091E00E94DD06980136951C
S11303A0279536952795ABE7B4E10E94B507AC01D4
S11303B0569547959A01ADECBCEC0E94B50796950D
S11303C0879596958795969587959C01220F331F5F
S11303D0880F991F880F991F880F991F820F931FE9
S11303E09A01281B390BC901805D0E94D50698012A
S11303F0ADECBCEC0E94B507EC01D695C795D6953B
S1130400C795D695C7959E010E94B5079695879581
S113041096958795969587959C01220F331F880F93
S1130420991F880F991F880F991F820F931F9E0190
S1130430281B390BC901805D0E94D506CE01880FA7
S1130440991FCC0FDD1FCC0FDD1FCC0FDD1FC80F94
S1130450D91FC8018C1B9D0B805D0E94D506DF91BE
S1130460CF911F910F9108950F931F93CF93DF9313
S1130470EC0199230CF03FC088E091E00E94DD0676
S1130480D195C195D109CE0160E177E20E94A1071F
S113049080E3860F0E94D506CE0168EE73E00E94C9
S11304A0A107CB010AE010E0B8010E94A107805D1A
S11304B00E94D50686E091E00E94DD06CE0164E646
S11304C070E00E94A107CB01B8010E94A107805DE2
S11304D00E94D506CE01B8010E94A107C82FCB0106
S11304E0B8010E94A107805D0E94D50680E38C0FAD
S11304F00E94D50636C060E177E20E94A10780E33E
S1130500860F0E94D506CE0168EE73E00E94A10713
S1130510CB010AE010E0B8010E94A107805D0E94AF
S1130520D50686E091E00E94DD06CE0164E670E027
S11305300E94A107CB01B8010E94A107805D0E941F
S1130540D506CE01B8010E94A107C82FCB01B8017E
S11305500E94A107805D0E94D50680E38C0F0E9453
S1130560D506DF91CF911F910F9108950F931F939B
S1130570CF93DF938C019C0136952795369527956B
S113058036952795A5ECB0E20E94B507AC015295CB
S113059042954F7045275F7045279A01ADECBCEC3E
S11305A00E94B50796958795969587959695879514
S11305B09C01220F331F880F991F880F991F880FE2
S11305C0991F820F931F9A01281B390BC901805D63
S11305D00E94D50698013695279536952795ABE761
S11305E0B4E10E94B507AC01569547959A01ADEC6C
S11305F0BCEC0E94B5079695879596958795969538
S113060087959C01220F331F880F991F880F991F0C
S1130610880F991F820F931F9A01281B390BC90158
S1130620805D0E94D50686E091E00E94DD06980177
S1130630ADECBCEC0E94B507EC01D695C795D695F8
S1130640C795D695C7959E010E94B507969587953F
S113065096958795969587959C01220F331F880F51
S1130660991F880F991F880F991F820F931F9E014E
S1130670281B390BC901805D0E94D506CE01880F65
S1130680991FCC0FDD1FCC0FDD1FCC0FDD1FC80F52
S1130690D91FC8018C1B9D0B805D0E94D506DF917C
S11306A0CF911F910F9108950F931F93CF93DF93D1
S11306B0EC0199239CF588E091E00E94DD06CE01CF
S11306C068EE73E00E94A107CB010AE010E0B801D4
S11306D00E94A107805D0E94D50686E091E00E94F9
S11306E0DD06CE0164E670E00E94A107CB01B801EB
S11306F00E94A107805D0E94D506CE01B8010E9428
S1130700A107C82FCB01B8010E94A107805D0E94F8
S1130710D50680E38C0F0E94D5062DC068EE73E0E9
S11307200E94A107CB010AE010E0B8010E94A107D2
S1130730805D0E94D50686E091E00E94DD06CE0130
S113074064E670E00E94A107CB01B8010E94A107F2
S1130750805D0E94D506CE01B8010E94A107C82F72
S1130760CB01B8010E94A107805D0E94D50680E3F9
S11307708C0F0E94D506DF91CF911F910F910895A0
S11307800F931F93CF93DF93EC0199239CF588E09B
S113079091E00E94DD06CE0168EE73E00E94A1079D
S11307A0CB010AE010E0B8010E94A107805D0E941D
S11307B0D506CE0164E670E00E94A107CB01B80122
S11307C00E94A107805D0E94D506CE01B8010E9457
S11307D0A107C82FCB01B8010E94A107805D0E9428
S11307E0D50686E091E00E94DD0680E38C0F0E942E
S11307F0D5062DC068EE73E00E94A107CB010AE084
S113080010E0B8010E94A107805D0E94D506CE01C8
S113081064E670E00E94A107CB01B8010E94A10721
S1130820805D0E94D506CE01B8010E94A107C82FA1
S1130830CB01B8010E94A107805D0E94D50686E025
S113084091E00E94DD0680E38C0F0E94D506DF91C3
S1130850CF911F910F910895CF93DF930E9452057A
S1130860EC0185E290E09983888322E02A839C83CB
S11308708B8321E02D839F838E8325E028879A87AD
S1130880898723E02B879D878C8784E08E87E9E620
S1130890F0E0808182608083E89ACE010E94BD05E9
S11308A0CE01DF91CF910895E1E8F0E08081886086
S11308B08083AFE6B0E08C9182608C9382E19AE70A
S11308C09093890080938800808184608083089558
S11308D082E491E00E94DD068CE592E00E94DD0650
S11308E085E591E00E94DD0681E00E945C000E94A3
S11308F0F3068CE592E00E94DD0685E691E00E9415
S1130900DD0686E40E945C000E94F3068CE592E01A
S11309100E94DD0687E791E00E94DD068BE20E94DB
S11309205C000E94F3068CE592E00E94DD0687E8F5
S113093091E00E94DD068CE20E945C000E94F306B6
S11309408CE592E00E94DD0684E991E00E94DD06D8
S11309508BE30E945C000E94F3068CE592E00E9407
S1130960DD0681EA91E00E94DD0680E30E945C00DE
S11309700E94F3068CE592E00E94DD0689EC91E08A
S11309800E94DD0681E30E945C000E94F3068CE570
S113099092E00E94DD068CED91E00E94DD0682E388
S11309A00E945C000E94F3068CE592E00E94DD0642
S11309B0089586EF91E00E94DD0689E40E945C00C0
S11309C00E94D00080E092E00E94DD0688E40E944C
S11309D05C000E9482018BE092E00E94DD068AE4C2
S11309E00E945C000E9434028CE592E00E94DD06C5
S11309F08CE192E00E94DD068CE40E945C000E947F
S1130A00B60288E292E00E94DD068DE40E945C005A
S1130A100E94540388E392E00E94DD068EE40E9463
S1130A205C000E94C00387E492E00E94DD06089502
S1130A300E94C4060E9453000E94A50678940E9456
S1130A402C040E9483000E9454048BE492E00E94D0
S1130A50DD060E946804809160028823E1F30E940D
S1130A60D90410926002F7CF1F920F920FB60F9223
S1130A7011248F9381E0809360028F910F900FBEB9
S1130A800F901F9018951F920F920FB60F9211247A
S1130A908F9381E0809361028F910F900FBE0F902E
S1130AA01F90189580E190E00E94D80720E1FC0196
S1130AB011922A95E9F70895CF92DF92EF92FF926F
S1130AC00F931F93CF93DF937C01862F6A018901D3
S1130AD0D701ED91FC911197908121E030E01296BD
S1130AE00C9002C0220F331F0A94E2F720952923A9
S1130AF020830E94BE06F70187870115110551F076
S1130B00E6010C0D1D1D88810E94BE068993C01745
S1130B10D107C9F7D701ED91FC911197208181E0AC
S1130B2090E012960C90129702C0880F991F0A94B5
S1130B30E2F7822B80831F968C91DF91CF911F91D6
S1130B400F91FF90EF90DF90CF90089560620E9424
S1130B505C050895CF93DF931F92CDB7DEB720E7EE
S1130B60298321E030E0AE014F5F5F4F67E00E94D0
S1130B70A6050F90DF91CF910895FF920F931F93D5
S1130B80CF93DF931F92CDB7DEB78C01DC01ED91DB
S1130B90FC911197429181E090E09C0112960C9097
S1130BA0129702C0220F331F0A94E2F7242B2083EA
S1130BB01396ED91FC91149742919C0115960C901B
S1130BC0159702C0220F331F0A94E2F7242B2083C7
S1130BD0ED91FC91119740819C0112960C90129713
S1130BE002C0220F331F0A94E2F7242B20831396AA
S1130BF0ED91FC9114973081AC0115960C901597EA
S1130C0002C0440F551F0A94E2F7242F2095232392
S1130C1020831696ED91FC91179742919C011896AA
S1130C200C90189702C0220F331F0A94E2F7242B6A
S1130C3020831996ED91FC911A9742919C011B9681
S1130C400C901B9702C0220F331F0A94E2F7242B47
S1130C5020831C96ED91FC911D9722911E960C9079
S1130C6002C0880F991F0A94E2F78095822380833B
S1130C700CB404FE0E94A50620E030E040E050E001
S1130C8062EEC8010E945C0520E030E040E050E0E4
S1130C9061EEC8010E945C05C8010E94AA058FE0AC
S1130CA0898321E030E0AE014F5F5F4F60E0C8010F
S1130CB00E94A6050F2EFFE3FF2EF02DF98221E0FE
S1130CC030E0AE014F5F5F4F61E0C8010E94A605AE
S1130CD089E0898321E030E0AE014F5F5F4F66E039
S1130CE0C8010E94A60580E6898321E030E0AE01B8
S1130CF04F5F5F4F65E0C8010E94A605F98221E0BD
S1130D0030E0AE014F5F5F4F6CE1C8010E94A60561
S1130D1084E0898321E030E0AE014F5F5F4F6DE1F5
S1130D20C8010E94A60581E0898321E030E0AE017C
S1130D304F5F5F4F62E0C8010E94A6050F90DF91EC
S1130D40CF911F910F91FF9008958CB580618CBD58
S1130D508CB580648CBD8CB5877F8CBD8CB58B7F46
S1130D608CBD8CB581608CBD8CB58D7F8CBD8DB5F3
S1130D708E7F8DBD8CB58F7D8CBD08958EBD0DB4D9
S1130D8007FEFDCF8EB508951092C50083E38093CE
S1130D90C400E0ECF0E080818D7F808388E1809363
S1130DA0C10086E08093C2000895E0ECF0E09081F9
S1130DB095FFFDCF8093C60008950F931F93CF93A3
S1130DC0FC018081882359F08F01C0E00E94D50680
S1130DD0CF5FF801EC0FF11D80818111F7CFCF9126
S1130DE01F910F9108950F931F93CF93DF938C015D
S1130DF09C01329522952F7023273F702327A7E467
S1130E00B3E00E94B5079695879596958795969534
S1130E108795805D0E94D50698013695279536956D
S1130E20279536952795A5ECB0E20E94B507AC014D
S1130E30529542954F7045275F7045279A01ADEC56
S1130E40BCEC0E94B50796958795969587959695DF
S1130E5087959C01220F331F880F991F880F991FB4
S1130E60880F991F820F931F9A01281B390BC90100
S1130E70805D0E94D506980136952795369527956D
S1130E80ABE7B4E10E94B507AC01569547959A01CA
S1130E90ADECBCEC0E94B507969587959695879521
S1130EA0969587959C01220F331F880F991F880FF1
S1130EB0991F880F991F820F931F9A01281B390BC2
S1130EC0C901805D0E94D5069801ADECBCEC0E947E
S1130ED0B507EC01D695C795D695C795D695C79510
S1130EE09E010E94B5079695879596958795969548
S1130EF087959C01220F331F880F991F880F991F14
S1130F00880F991F820F931F9E01281B390BC9015B
S1130F10805D0E94D506CE01880F991FCC0FDD1F7E
S1130F20CC0FDD1FCC0FDD1FC80FD91FC8018C1BD0
S1130F309D0B805D0E94D506DF91CF911F910F918B
S1130F40089597FB072E16F4009407D077FD09D077
S1130F500E94C40707FC05D03EF4909581959F4FED
S1130F600895709561957F4F0895A29FB001B39F36
S1130F70C001A39F700D811D1124911DB29F700D9E
S1130F80811D1124911D0895AA1BBB1B51E107C0AB
S1130F90AA1FBB1FA617B70710F0A61BB70B881F05
S1130FA0991F5A95A9F780959095BC01CD01089594
S1130FB00F931F93CF93DF938230910510F482E057
S1130FC090E0E0916402F091650220E030E0A0E05E
S1130FD0B0E0309719F140815181028113814817A3
S1130FE05907C8F08417950769F4109731F01296E1
S1130FF00C93129713961C9327C0009364021093CA
S1131000650222C02115310519F04217530718F45F
S11310109A01BD01EF01DF01F801DBCF2115310594
S1131020F9F0281B390B2430310580F48A819B8127
S11310306115710521F0FB019383828304C09093B1
S1131040650280936402FE01329644C0FE01E20F01
S1131050F31F8193919322503109398328833AC035
S11310602091620230916302232B41F4209102010A
S113107030910301309363022093620220910001B6
S1131080309101012115310541F42DB73EB740914E
S1131090040150910501241B350BE0916202F0918B
S11310A06302E217F307A0F42E1B3F0B281739073E
S11310B078F0AC014E5F5F4F2417350748F04E0FB0
S11310C05F1F50936302409362028193919302C025
S11310D0E0E0F0E0CF01DF91CF911F910F910895EF
S11310E0CF93DF93009709F481C0FC0132971382F8
S11310F01282A0916402B0916502109781F420815C
S11311003181820F931F209162023091630228176C
S1131110390751F5F0936302E093620267C0ED0171
S113112020E030E0CE17DF0740F44A815B819E0166
S113113041155105F1F0EA01F5CFD383C283408113
S11311405181840F951FC817D90759F48881998153
S1131150840F951F0296918380838A819B81938358
S113116082832115310529F4F0936502E09364022A
S11311703DC0E901FB83EA8349915991C40FD51F0E
S1131180EC17FD0761F480819181840F951F02960D
S1131190E90199838883828193819B838A83E0E038
S11311A0F0E012968D919C911397009719F0FD0130
S11311B0DC01F7CF8D919C9111979D012E5F3F4FDC
S11311C0820F931F2091620230916302281739071E
S11311D069F4309729F4109265021092640202C0F7
S11311E013821282B0936302A0936202DF91CF91C3
S10911F00895F894FFCFFE
S11311F60000660220002E002D005472616E736D8D
S1131206697474696E67206F6E204368616E6E65DB
S11312166C3A20307800480D0A0052462053657413
S11312262075702056616C75653A200020202000D8
S11312362F00506F77657220494320536574746993
S11312466E67733A0053797374656D2053746174D1
S113125675733A20004D65746572696E6720537420
S1131266617475733A20004D65746572696E672002
S11312764D6F64653A2000436865636B73756D2032
S1131286313A2000436865636B73756D20323A20EA
S1131296004D6561737572656D656E742043616C8E
S11312A66962726174696F6E20537461727420434B
S11312B66F6D6D616E643A2000566F6C746167657C
S11312C620524D53204761696E3A20004C204C69E8
S11312D66E652043757272656E7420524D532047B5
S11312E661696E3A2000566F6C746167653A200036
S11312F60943757272656E743A200009204163745D
S113130669766520506F7765723A2000467265717A
S113131675656E63793A200009506F7765722046C9
S11313266163746F723A20000950686173652041E5
S11313366E676C653A20000D0A0A00537461727474
S1131346696E672050726F6772616D210D0A000025
S9030000FC
