:100000000C9434000C949E010C9451000C945100FB
:100010000C9451000C9451000C9451000C9451001C
:100020000C9451000C9451000C9451000C948F01CD
:100030000C9451000C9451000C9451000C945100FC
:100040000C9451000C9451000C9451000C945100EC
:100050000C9451000C9451000C9451000C945100DC
:100060000C9451000C94510011241FBECFEFD8E026
:10007000DEBFCDBF12E0A0E0B1E0E0EAFAE002C0EE
:1000800005900D92AC34B107D9F722E0ACE4B2E0B0
:1000900001C01D92A235B207E1F70E9473010C94D2
:1000A0004E050C94000080E28093B800ECEBF0E089
:1000B0008081846080830895209A289A0CB404FE7D
:1000C0000E9408030895CF93289880680E94210316
:1000D00080E00E942103C82F80E00E942103289A1B
:1000E0002C2F30E0322F2227A901482BCA01CF91B3
:1000F0000895CF93DF930E94AD01EC0185E290E07B
:100100009983888322E02A839C838B8321E02D833B
:100110009F838E8325E028879A87898723E02B8712
:100120009D878C8784E08E87E9E6F0E0808182609D
:100130008083E89ACE010E941802CE01DF91CF9110
:100140000895E1E8F0E0808188608083AFE6B0E068
:100150008C9182608C9382E19AE7909389008093DE
:100160008800808184608083089586E091E00E9409
:10017000400385E00E9400030E940E0482E291E0A9
:100180000E94400386E291E00E94400386E00E94C4
:1001900000030E940E0482E291E00E944003089551
:1001A0008EE391E00E94400386E492E00E944003C7
:1001B00081E591E00E94400381E00E9463000E947B
:1001C000560386E492E00E94400381E691E00E949B
:1001D000400386E40E9463000E94560386E492E096
:1001E0000E94400383E791E00E9440038BE20E945B
:1001F00063000E94560386E492E00E94400383E875
:1002000091E00E9440038CE20E9463000E9456032A
:1002100086E492E00E94400380E991E00E9440035E
:100220008BE30E9463000E94560386E492E00E94E2
:1002300040038DE991E00E94400380E30E94630047
:100240000E94560386E492E00E94400385EC91E010
:100250000E94400381E30E9463000E94560386E4EB
:1002600092E00E94400388ED91E00E94400382E307
:100270000E9463000E94560386E492E00E944003BD
:10028000089582EF91E00E94400389E40E94630098
:100290000E9456038CEF91E00E94400388E40E9484
:1002A00063000E94560387E092E00E9440038AE4C4
:1002B0000E9463000E94560388E192E00E9440037E
:1002C0008CE40E9463000E94560385E292E00E9443
:1002D00040038DE40E9463000E94560386E492E08E
:1002E0000E94400308950E9427030E9453000E9429
:1002F000080378940E9479000E945C000E94A1008B
:1003000085E392E00E9440030E94B5000E94D00065
:1003100080914C028823E1F30E944101F9CF1F92A2
:100320000F920FB60F9211248F9381E080934C02AD
:100330008F910F900FBE0F901F9018951F920F92E4
:100340000FB60F9211248F9381E080934D028F910D
:100350000F900FBE0F901F90189580E190E00E94C3
:100360002D0420E1FC0111922A95E9F70895CF921E
:10037000DF92EF92FF920F931F93CF93DF937C0155
:10038000862F6A018901D701ED91FC911197908127
:1003900021E030E012960C9002C0220F331F0A9425
:1003A000E2F72095292320830E942103F701878704
:1003B0000115110551F0E6010C0D1D1D88810E94EB
:1003C00021038993C017D107C9F7D701ED91FC919B
:1003D0001197208181E090E012960C90129702C054
:1003E000880F991F0A94E2F7822B80831F968C91C5
:1003F000DF91CF911F910F91FF90EF90DF90CF9001
:10040000089560620E94B7010895CF93DF931F9211
:10041000CDB7DEB720E7298321E030E0AE014F5FA2
:100420005F4F67E00E9401020F90DF91CF91089526
:10043000FF920F931F93CF93DF931F92CDB7DEB739
:100440008C01DC01ED91FC911197429181E090E0EB
:100450009C0112960C90129702C0220F331F0A942F
:10046000E2F7242B20831396ED91FC91149742918F
:100470009C0115960C90159702C0220F331F0A9409
:10048000E2F7242B2083ED91FC91119740819C0190
:1004900012960C90129702C0220F331F0A94E2F7B3
:1004A000242B20831396ED91FC9114973081AC019D
:1004B00015960C90159702C0440F551F0A94E2F749
:1004C000242F2095232320831696ED91FC911797D6
:1004D00042919C0118960C90189702C0220F331F6E
:1004E0000A94E2F7242B20831996ED91FC911A9738
:1004F00042919C011B960C901B9702C0220F331F48
:100500000A94E2F7242B20831C96ED91FC911D9711
:1005100022911E960C9002C0880F991F0A94E2F750
:100520008095822380830CB404FE0E94080320E09F
:1005300030E040E050E062EEC8010E94B70120E0E8
:1005400030E040E050E061EEC8010E94B701C80110
:100550000E9405028FE0898321E030E0AE014F5F09
:100560005F4F60E0C8010E9401020F2EFFE3FF2EE3
:10057000F02DF98221E030E0AE014F5F5F4F61E086
:10058000C8010E94010289E0898321E030E0AE01C8
:100590004F5F5F4F66E0C8010E94010280E68983D9
:1005A00021E030E0AE014F5F5F4F65E0C8010E947F
:1005B0000102F98221E030E0AE014F5F5F4F6CE154
:1005C000C8010E94010284E0898321E030E0AE018D
:1005D0004F5F5F4F6DE1C8010E94010281E0898396
:1005E00021E030E0AE014F5F5F4F62E0C8010E9442
:1005F00001020F90DF91CF911F910F91FF9008950D
:100600002A980E94210380E00E9421032A9A0895DB
:100610008CB580618CBD8CB580648CBD8CB5877FBA
:100620008CBD8CB58B7F8CBD8CB581608CBD8CB541
:100630008D7F8CBD8DB58E7F8DBD8CB58F7D8CBD36
:1006400008958EBD0DB407FEFDCF8EB508951092AE
:10065000C50083E38093C400E0ECF0E080818D7FEF
:10066000808388E18093C10086E08093C200089572
:10067000E0ECF0E0908195FFFDCF8093C6000895F7
:100680000F931F93CF93FC018081882359F08F0132
:10069000C0E00E943803CF5FF801EC0FF11D8081AC
:1006A0008111F7CFCF911F910F9108950F931F9351
:1006B000CF93DF938C019C01329522952F702327D5
:1006C0003F702327A7E4B3E00E941E049695879508
:1006D0009695879596958795805D0E943803980139
:1006E000369527953695279536952795A5ECB0E252
:1006F0000E941E04AC01529542954F7045275F70D1
:1007000045279A01ADECBCEC0E941E049695879596
:1007100096958795969587959C01220F331F880F94
:10072000991F880F991F880F991F820F931F9A0195
:10073000281B390BC901805D0E94380389E492E0CF
:100740000E94400398013695279536952795ABE78B
:10075000B4E10E941E04AC01569547959A01ADEC98
:10076000BCEC0E941E049695879596958795969564
:1007700087959C01220F331F880F991F880F991F9F
:10078000880F991F820F931F9A01281B390BC901EB
:10079000805D0E9438039801ADECBCEC0E941E0401
:1007A000EC01D695C795D695C795D695C7959E0168
:1007B0000E941E04969587959695879596958795A0
:1007C0009C01220F331F880F991F880F991F880FD4
:1007D000991F820F931F9E01281B390BC901805D51
:1007E0000E943803CE01880F991FCC0FDD1FCC0F5C
:1007F000DD1FCC0FDD1FC80FD91FC8018C1B9D0B3F
:10080000805D0E943803DF91CF911F910F91089571
:100810008A3010F4805D0895895C0895CF93C82FC5
:1008200082958F700E9408040E9438038C2F8F706D
:100830000E9408040E943803CF910895A29FB0013E
:10084000B39FC001A39F700D811D1124911DB29F04
:10085000700D811D1124911D08950F931F93CF9347
:10086000DF938230910510F482E090E0E091500235
:10087000F091510220E030E0A0E0B0E0309719F1B3
:10088000408151810281138148175907C8F08417AC
:10089000950769F4109731F012960C9312971396FE
:1008A0001C9327C0009350021093510222C02115BF
:1008B000310519F04217530718F49A01BD01EF01F1
:1008C000DF01F801DBCF21153105F9F0281B390BC9
:1008D0002430310580F48A819B816115710521F0F6
:1008E000FB019383828304C0909351028093500252
:1008F000FE01329644C0FE01E20FF31F81939193F3
:1009000022503109398328833AC020914E02309118
:100910004F02232B41F420910201309103013093C7
:100920004F0220934E0220910001309101012115C8
:10093000310541F42DB73EB74091040150910501B6
:10094000241B350BE0914E02F0914F02E217F307A2
:10095000A0F42E1B3F0B2817390778F0AC014E5F2F
:100960005F4F2417350748F04E0F5F1F50934F021B
:1009700040934E028193919302C0E0E0F0E0CF01FA
:10098000DF91CF911F910F910895CF93DF9300973F
:1009900009F481C0FC01329713821282A0915002A7
:1009A000B0915102109781F420813181820F931F01
:1009B00020914E0230914F022817390751F5F093DC
:1009C0004F02E0934E0267C0ED0120E030E0CE1709
:1009D000DF0740F44A815B819E0141155105F1F02A
:1009E000EA01F5CFD383C28340815181840F951FE3
:1009F000C817D90759F488819981840F951F0296E9
:100A0000918380838A819B81938382832115310521
:100A100029F4F0935102E09350023DC0E901FB83B9
:100A2000EA8349915991C40FD51FEC17FD0761F472
:100A300080819181840F951F0296E90199838883B3
:100A4000828193819B838A83E0E0F0E012968D910E
:100A50009C911397009719F0FD01DC01F7CF8D9160
:100A60009C9111979D012E5F3F4F820F931F209104
:100A70004E0230914F022817390769F4309729F454
:100A8000109251021092500202C013821282B0934F
:100A90004F02A0934E02DF91CF910895F894FFCFBB
:100AA0000000520220005472616E736D69747469A3
:100AB0006E67206F6E204368616E6E656C3A203001
:100AC0007800480D0A005246205365742075702046
:100AD00056616C75653A2000202020002F00506F71
:100AE0007765722049432053657474696E67733A61
:100AF0000053797374656D205374617475733A2073
:100B0000004D65746572696E672053746174757306
:100B10003A20004D65746572696E67204D6F64659B
:100B20003A2000436865636B73756D20313A20008D
:100B3000436865636B73756D20323A20004D6561C3
:100B4000737572656D656E742043616C6962726164
:100B500074696F6E20537461727420436F6D6D61A0
:100B60006E643A2000566F6C7461676520524D5375
:100B7000204761696E3A20004C204C696E65204325
:100B8000757272656E7420524D53204761696E3ADA
:100B90002000566F6C746167653A200009437572D6
:100BA00072656E743A20000920416374697665208D
:100BB000506F7765723A2000094672657175656EEF
:100BC00063793A200009506F77657220466163743B
:100BD0006F723A20005374617274696E67205072AC
:0C0BE0006F6772616D210D0A002E00008D
:00000001FF
