:100000000C9434000C946D030C9451000C9451002A
:100010000C9451000C9451000C9451000C9451001C
:100020000C9451000C9451000C9451000C945E03FC
:100030000C9451000C9451000C9451000C945100FC
:100040000C9451000C9451000C9451000C945100EC
:100050000C9451000C9451000C9451000C945100DC
:100060000C9451000C94510011241FBECFEFD8E026
:10007000DEBFCDBF12E0A0E0B1E0E8E7F7E002C0EC
:1000800005900D92A23BB107D9F722E0A2EBB2E0B6
:1000900001C01D92A43BB207E1F70E9434030C9407
:1000A000BA030C94000080E28093B800ECEBF0E01F
:1000B0008081846080830895ECEBF0E08081882368
:1000C000ECF7089584EA8093BC000E945C000895D8
:1000D00084E98093BC00089584EC8093BC000E9466
:1000E0005C008091BB00089584E88093BC000E946E
:1000F0005C008091BB0008958093BB0084E88093EE
:10010000BC000E945C000895DC018C91882351F0B2
:10011000FD0190E010829F5FFD01E90FF11D20813C
:100120002111F8CF0895FB01E40FF51F9DEC899F85
:10013000212D1124269526952695299F912D112450
:10014000969596959695990F392F330F330F930FF8
:10015000322F391B932F905D9083220F922F990F8E
:10016000990F290F821B805D81830895CF93DF93C0
:10017000EC01460F571F9C01ADECBCEC0E94AB0399
:10018000FC01F695E795F695E795F695E7959F01BD
:100190000E94AB039695879596958795969587953A
:1001A0009C01220F331F880F991F880F991F880FFA
:1001B000991F820F931F9F01281B390BC901805D76
:1001C000DA018C93CF01880F991FEE0FFF1FEE0FFE
:1001D000FF1FEE0FFF1FE80FF91FCE1BDF0BC05DE7
:1001E0001196CC93DF91CF9108959F92AF92BF92D9
:1001F000CF92DF92EF92FF920F931F93CF93DF93F3
:10020000EC010E9484000E946200809100010E9423
:100210007C0080E00E947C000E94620080910101CD
:100220000E947C000E946C008F77982F92959F709F
:10023000292F220F920F990FE82EE91A0E946C00C5
:10024000982F92959F70292F220F920F990FD82ED9
:10025000D91A0E946C00982F92959F70292F220F17
:10026000920F990FF82EF91A0E946C000E946C00F0
:10027000982F92959F70292F220F920F990FC82EB9
:10028000C91A0E946C00982F92959F70292F220FF7
:10029000920F990F982E991A0E947400982F929598
:1002A0009F70292F220F920F990F082F091B10E022
:1002B0000053184F0E9468008CE08F1548F4E4EF5B
:1002C000FE0E0F2EF2E0AF2EF1E0BF2EF02D06C095
:1002D0000F2EF5E0AF2EF1E0BF2EF02D40E050E004
:1002E000BE018F2D0E9493000F2EFAE3FF2EF02DFA
:1002F000FA8243E050E0BE018D2D0E949300FD8202
:1003000046E050E0BE018E2D0E94930080E2888777
:10031000F5019081998791819A878B874CE050E015
:10032000BE01892D0E9493000F2EFFE2FF2EF02DBB
:10033000FE864FE050E0BE018C2D0E949300F98AAA
:1003400042E150E0BE01C8010E94B600DF91CF91AA
:100350001F910F91FF90EF90DF90CF90BF90AF90E3
:100360009F900895CF93C82F0E9462008EE70E944D
:100370007C008C2F0E947C008C2F84600E947C006B
:100380008C2F8B7F0E947C000E946800CF91089583
:10039000CF938AE00E94B2018AE00E94B2010E94DB
:1003A00062008EE70E947C0088E00E947C000E9430
:1003B00062008FE70E947C000E947400C82F0E9498
:1003C0006800CC2334F3CF9108958FE295E701972D
:1003D000F1F700C0000080E30E94B20187E090E2E4
:1003E0000197F1F700C0000080E30E94B20187ECA2
:1003F00090E00197F1F700C0000080E30E94B20195
:1004000087E090E20197F1F700C0000080E20E94CF
:10041000B20108958AE68A95F1F700C080E20E9451
:10042000B20180E80E94B2019AE69A95F1F700C005
:1004300080E00E94B20180E80E94B2018AE68A95BB
:10044000F1F700C080E00E94B20180E10E94B20199
:100450008FEC9CE00197F1F700C0000080E00E9463
:10046000B20180E60E94B2019AE69A95F1F700C0C7
:1004700008950E94C80188E00E94B20188EF0E949E
:10048000B20108950E94E5010E940A020E94390209
:1004900008950E94C80188E00E94B20188E10E948C
:1004A000B2010895CF93C82F0E94C8018C2F807F7E
:1004B00089600E94B20120E1C29FC00111248960BD
:1004C0000E94B201CF9108950F931F93CF93DF93B2
:1004D000D82FC92F062F172F0E94C8012D2F3C2F70
:1004E0002430310514F023E030E0C02FD12FC53186
:1004F000D10514F0C4E1D0E02115310581F48C2F31
:10050000807F88680E94B201CE0182959295907F8B
:100510009827807F982788600E94B2013EC02130D2
:10052000310589F48C2F805C807F88680E94B2013D
:10053000CE0182959295907F9827807F982788603A
:100540000E94B2012AC02230310591F48C2F8C5EBA
:10055000807F88680E94B201CE0144968295929570
:10056000907F9827807F982788600E94B20115C0ED
:100570002330310591F48C2F8C5A807F88680E943B
:10058000B201CE018C5A9F4F82959295907F982709
:10059000807F982788600E94B201DF91CF911F91E0
:1005A0000F9108950F931F93CF93FC0180818823AF
:1005B00059F08F01C0E00E945202CF5FF801EC0FAA
:1005C000F11D80818111F7CFCF911F910F91089577
:1005D000E1E8F0E0808188608083AFE6B0E08C9154
:1005E00082608C9382E19AE79093890080938800DF
:1005F0008081846080830895CF93DF93CDB7DEB789
:100600006E970FB6F894DEBF0FBECDBFCE01019638
:100610000E94F500CE0101960E9495036E960FB6DA
:10062000F894DEBF0FBECDBFDF91CF910895CF9379
:10063000DF93CDB7DEB76E970FB6F894DEBF0FBE6F
:10064000CDBFCE0101960E94F5000E944902CE0165
:1006500001960E94D2026E960FB6F894DEBF0FBECE
:10066000CDBFDF91CF9108950E947C030E9453007B
:100670000E94420278940E94E8020E94490260E0CF
:1006800070E080E090E00E94640284E491E00E94C7
:10069000D202C0E0D0E08091B2028823E1F30E9450
:1006A000FC020E94170382E291E00E9495031092DF
:1006B000B202C530D1057CF72196EDCF1F920F9283
:1006C0000FB60F9211248F9381E08093B2028F9125
:1006D0000F900FBE0F901F9018951F920F920FB69C
:1006E0000F9211248F9381E08093B3028F910F902A
:1006F0000FBE0F901F9018951092C50083E3809352
:10070000C400E0ECF0E080818D7F808388E18093FD
:10071000C10086E08093C2000895E0ECF0E0908193
:1007200095FFFDCF8093C60008950F931F93CF933D
:10073000FC018081882359F08F01C0E00E948D0365
:10074000CF5FF801EC0FF11D80818111F7CFCF91C0
:100750001F910F910895A29FB001B39FC001A39F65
:10076000700D811D1124911DB29F700D811D1124EA
:08077000911D0895F894FFCFDC
:10077800D0D1504D00414D005472616E736D697453
:1007880074696E67206F6E204368616E6E656C3A9F
:1007980020000D0A005246205365742075702056BB
:1007A800616C75653A20005246204368616E6E653B
:1007B8006C3A20005374617274696E672050726FCE
:1007C8006772616D2100506F77657220494320532D
:1007D800657474696E67733A0053797374656D2034
:1007E8005374617475733A20004D65746572696E4F
:1007F80067205374617475733A20004D657465728F
:10080800696E67204D6F64653A2000436865636BC5
:1008180073756D20313A2000436865636B73756D9D
:1008280020323A20004D6561737572656D656E748E
:100838002043616C6962726174696F6E20537461E0
:10084800727420436F6D6D616E643A2000566F6C50
:100858007461676520524D53204761696E3A2000E4
:100868004C204C696E652043757272656E74205217
:100878004D53204761696E3A200053533A20004D8A
:10088800533A20004D4D3A2000566F6C74616765ED
:100898003A2000090943757272656E743A20004661
:1008A80072657175656E63793A200009506F7765D6
:1008B8007220466163746F723A2000095068617350
:1008C8006520416E676C653A20000A0D41637469C2
:1008D800766520506F7765723A200009526561632A
:1008E8007469766520506F7765723A200009416215
:1008F800736F6C75746520506F7765723A20000DC0
:100908000A0A00563A2020202000493A20202020B8
:100918000052503A2020005020416E676C653A2002
:020928000000CD
:00000001FF
