S0120000506F7765724D657465722E7372656308
S11300000C9434000C946F060C9451000C94510021
S11300100C9451000C9451000C9451000C94510018
S11300200C9451000C9451000C9451000C946006F3
S11300300C9451000C9451000C9451000C945100F8
S11300400C9451000C9451000C9451000C945100E8
S11300500C9451000C9451000C9451000C945100D8
S11300600C9451000C94510011241FBECFEFD8E022
S1130070DEBFCDBF12E0A0E0B1E0EAE3F3E102C0ED
S113008005900D92A638B107D9F722E0A6E8B2E0B0
S113009001C01D92AC38B207E1F70E942F060C9400
S11300A09B090C94000080E28093B800ECEBF0E034
S11300B08081846080830895CF93289880680E940B
S11300C0EA0780E00E94EA07C82F80E00E94EA075E
S11300D0289A2C2F30E0322F2227A901482BCA015D
S11300E0CF910895CF93DF93C62FD72F28980E94DE
S11300F0EA078D2F0E94EA078C2F0E94EA07289AAC
S1130100DF91CF910895CF93DF93209A289A0CB46E
S113011004FE0E94D10768E776E580E20E9472003F
S113012060E370E081E20E94720063ED73EB82E2AF
S11301300E94720060E070E083E20E94720060E05E
S113014070E084E20E94720060E070E085E20E9448
S1130150720060E070E086E20E9472006DEB78E06D
S113016087E20E94720060E070E088E20E94720000
S11301706CEE7AE089E20E94720060E070E08AE24C
S11301800E94720062E274E38BE20E9472008CE2CD
S11301900E945C00BC018CE20E94720065E677E874
S11301A080E20E94720068E776E580E30E947200B4
S11301B061E675E881E30E9472006CE17DE382E30D
S11301C00E94720060E375E783E30E94720060E0BE
S11301D070E084E30E94720060E070E085E30E94B6
S11301E0720060E070E086E30E94720060E070E0FC
S11301F087E30E94720060E070E088E30E9472006E
S113020060E070E089E30E94720060E070E08AE3DD
S11302100E9472008BE30E945C00EC0160E070E0DD
S11302208BE30E947200BE018BE30E94720065E6BC
S113023077E880E30E947200DF91CF9108950F93D5
S11302401F93CF93DF938C019C01329522952F70DD
S113025023273F702327A7E4B3E00E94570896950D
S113026087959695879596958795805D0E94010858
S11302709801369527953695279536952795A5ECBB
S1130280B0E20E945708AC01529542954F70452741
S11302905F7045279A01ADECBCEC0E945708969517
S11302A0879596958795969587959C01220F331F80
S11302B0880F991F880F991F880F991F820F931F0A
S11302C09A01281B390BC901805D0E94010898011D
S11302D03695279536952795ABE7B4E10E945708E4
S11302E0AC01569547959A01ADECBCEC0E945708B9
S11302F09695879596958795969587959C01220F57
S1130300331F880F991F880F991F880F991F820F19
S1130310931F9A01281B390BC901805D0E940108B3
S113032086E091E00E9409089801ADECBCEC0E94C3
S11303305708EC01D695C795D695C795D695C79518
S11303409E010E9457089695879596958795969550
S113035087959C01220F331F880F991F880F991FBF
S1130360880F991F820F931F9E01281B390BC90107
S1130370805D0E940108CE01880F991FCC0FDD1FFC
S1130380CC0FDD1FCC0FDD1FC80FD91FC8018C1B7C
S11303909D0B805D0E940108DF91CF911F910F9109
S11303A008950F931F93CF93DF938C019C01329593
S11303B022952F7023273F702327A7E4B3E00E94E0
S11303C05708969587959695879596958795805D18
S11303D00E940108980136952795369527953695FC
S11303E02795A5ECB0E20E945708AC0152954295BE
S11303F04F7045275F7045279A01ADECBCEC0E9415
S113040057089695879596958795969587959C0117
S1130410220F331F880F991F880F991F880F991F68
S1130420820F931F9A01281B390BC901805D0E941A
S1130430010886E091E00E94090898013695279505
S113044036952795ABE7B4E10E945708AC01569561
S113045047959A01ADECBCEC0E9457089695879598
S113046096958795969587959C01220F331F880F43
S1130470991F880F991F880F991F820F931F9A0144
S1130480281B390BC901805D0E9401089801ADEC5D
S1130490BCEC0E945708EC01D695C795D695C79534
S11304A0D695C7959E010E9457089695879596956F
S11304B08795969587959C01220F331F880F991F66
S11304C0880F991F880F991F820F931F9E01281B65
S11304D0390BC901805D0E940108CE01880F991F64
S11304E0CC0FDD1FCC0FDD1FCC0FDD1FC80FD91FB4
S11304F0C8018C1B9D0B805D0E940108DF91CF9188
S11305001F910F9108950F931F93CF93DF93EC01E5
S113051099230CF03FC088E091E00E940908D1952E
S1130520C195D109CE0160E177E20E94430880E3DE
S1130530860F0E940108CE0168EE73E00E94430812
S1130540CB010AE010E0B8010E944308805D0E94DC
S1130550010886E091E00E940908CE0164E670E09B
S11305600E944308CB01B8010E944308805D0E94A9
S11305700108CE01B8010E944308C82FCB01B8017D
S11305800E944308805D0E94010880E38C0F0E9452
S1130590010836C060E177E20E94430880E3860FD9
S11305A00E940108CE0168EE73E00E944308CB016B
S11305B00AE010E0B8010E944308805D0E9401082F
S11305C086E091E00E940908CE0164E670E00E9492
S11305D04308CB01B8010E944308805D0E940108D2
S11305E0CE01B8010E944308C82FCB01B8010E9474
S11305F04308805D0E94010880E38C0F0E9401087B
S1130600DF91CF911F910F9108950F931F93CF9373
S1130610DF938C019C013695279536952795369561
S11306202795A5ECB0E20E945708AC01529542957B
S11306304F7045275F7045279A01ADECBCEC0E94D2
S113064057089695879596958795969587959C01D5
S1130650220F331F880F991F880F991F880F991F26
S1130660820F931F9A01281B390BC901805D0E94D8
S1130670010898013695279536952795ABE7B4E19F
S11306800E945708AC01569547959A01ADECBCEC15
S11306900E94570896958795969587959695879580
S11306A09C01220F331F880F991F880F991F880FF1
S11306B0991F820F931F9A01281B390BC901805D72
S11306C00E94010886E091E00E9409089801ADECBF
S11306D0BCEC0E945708EC01D695C795D695C795F2
S11306E0D695C7959E010E9457089695879596952D
S11306F08795969587959C01220F331F880F991F24
S1130700880F991F880F991F820F931F9E01281B22
S1130710390BC901805D0E940108CE01880F991F21
S1130720CC0FDD1FCC0FDD1FCC0FDD1FC80FD91F71
S1130730C8018C1B9D0B805D0E940108DF91CF9145
S11307401F910F9108950F931F93CF93DF93EC01A3
S11307509923A4F5DF7788E091E00E940908CE018F
S113076068EE73E00E944308CB010AE010E0B80190
S11307700E944308805D0E94010886E091E00E9487
S11307800908CE0164E670E00E944308CB01B80179
S11307900E944308805D0E940108CE01B8010E94B6
S11307A04308C82FCB01B8010E944308805D0E9412
S11307B0010880E38C0F0E9401082DC068EE73E0ED
S11307C00E944308CB010AE010E0B8010E944308EC
S11307D0805D0E94010886E091E00E940908CE0134
S11307E064E670E00E944308CB01B8010E9443080C
S11307F0805D0E940108CE01B8010E944308C82F01
S1130800CB01B8010E944308805D0E94010880E387
S11308108C0F0E940108DF91CF911F910F910895D1
S11308200F931F93CF93DF93EC019923B4F588E0E2
S113083091E00E940908D195C195D109CE0168EED5
S113084073E00E944308CB010AE010E0B8010E9463
S11308504308805D0E940108CE0164E670E00E94B6
S11308604308CB01B8010E944308805D0E9401083F
S1130870CE01B8010E944308C82FCB01B8010E94E1
S11308804308805D0E94010886E091E00E94090807
S113089080E38C0F0E9401082DC068EE73E00E9473
S11308A04308CB010AE010E0B8010E944308805DD0
S11308B00E940108CE0164E670E00E944308CB0167
S11308C0B8010E944308805D0E940108CE01B8016E
S11308D00E944308C82FCB01B8010E944308805DE1
S11308E00E94010886E091E00E94090880E38C0FD1
S11308F00E940108DF91CF911F910F9108950F93EA
S11309001F93CF93DF938C019C01329522952F7016
S113091023273F702327A7E4B3E00E945708969546
S113092087959695879596958795805D0E94010891
S11309309801369527953695279536952795A5ECF4
S1130940B0E20E945708AC01529542954F7045277A
S11309505F7045279A01ADECBCEC0E945708969550
S1130960879596958795969587959C01220F331FB9
S1130970880F991F880F991F880F991F820F931F43
S11309809A01281B390BC901805D0E940108980156
S11309903695279536952795ABE7B4E10E9457081D
S11309A0AC01569547959A01ADECBCEC0E945708F2
S11309B09695879596958795969587959C01220F90
S11309C0331F880F991F880F991F880F991F820F53
S11309D0931F9A01281B390BC901805D0E940108ED
S11309E09801ADECBCEC0E945708EC01D695C79574
S11309F0D695C795D695C7959E010E94570896959A
S1130A00879596958795969587959C01220F331F18
S1130A10880F991F880F991F880F991F820F931FA2
S1130A209E01281B390BC901805D0E94010886E0E4
S1130A3091E00E940908CE01880F991FCC0FDD1F99
S1130A40CC0FDD1FCC0FDD1FC80FD91FC8018C1BB5
S1130A509D0B805D0E940108DF91CF911F910F9142
S1130A600895CF93DF930E947E06EC0185E290E027
S1130A709983888322E02A839C838B8321E02D83BE
S1130A809F838E8325E028879A87898723E02B8795
S1130A909D878C8784E08E87E9E6F0E08081826020
S1130AA08083E89ACE010E94E906CE01DF91CF91BE
S1130AB00895E1E8F0E0808188608083AFE6B0E0EB
S1130AC08C9182608C9382E19AE790938900809361
S1130AD08800808184608083089582E491E00E948C
S1130AE0090881E892E00E94090885E591E00E94E6
S1130AF0090881E00E945C000E94350881E892E0C8
S1130B000E94090885E691E00E94090886E40E9493
S1130B105C000E94350881E892E00E94090887E79A
S1130B2091E00E9409088BE20E945C000E94350853
S1130B3081E892E00E94090887E891E00E94090890
S1130B408CE20E945C000E94350881E892E00E94D9
S1130B50090884E991E00E9409088BE30E945C0083
S1130B600E94350881E892E00E94090881EA91E038
S1130B700E94090880E30E945C000E94350881E815
S1130B8092E00E94090889EC91E00E94090881E33F
S1130B900E945C000E94350881E892E00E940908E6
S1130BA08CED91E00E94090882E30E945C000E949F
S1130BB0350881E892E00E940908089586EF91E0E3
S1130BC00E94090889E40E945C000E941F0180E0E1
S1130BD092E00E94090888E40E945C000E94D1010E
S1130BE081E892E00E9409088CE092E00E940908E2
S1130BF08CE40E945C000E94050388E192E00E945C
S1130C0009088DE40E945C000E94A30388E292E03C
S1130C100E9409088EE40E945C000E94100487E38D
S1130C2092E00E9409088AE40E945C000E94830208
S1130C3088E492E00E9409088BE40E945C000E9410
S1130C4083028AE592E00E9409088FE40E945C0016
S1130C500E9483028CE692E00E94090808950E9493
S1130C60F0070E9453000E94D10778940E94310536
S1130C700E9483000E94590580E792E00E940908BF
S1130C800E946D05C0E0D0E000E010E08091860293
S1130C908823E1F30E94DE0582E40E945C00C80F11
S1130CA0D91FCE010E947F0481E892E00E940908C6
S1130CB010928602053011054CF70F5F1F4FE6CFE7
S1130CC01F920F920FB60F9211248F9381E080939D
S1130CD086028F910F900FBE0F901F9018951F9250
S1130CE00F920FB60F9211248F9381E080938702A5
S1130CF08F910F900FBE0F901F90189580E190E098
S1130D000E947A0820E1FC0111922A95E9F70895DE
S1130D10CF92DF92EF92FF920F931F93CF93DF93C3
S1130D207C01862F6A018901D701ED91FC9111970D
S1130D30908121E030E012960C9002C0220F331F04
S1130D400A94E2F72095292320830E94EA07F701F9
S1130D5087870115110551F0E6010C0D1D1D8881D1
S1130D600E94EA078993C017D107C9F7D701ED910B
S1130D70FC911197208181E090E012960C901297DB
S1130D8002C0880F991F0A94E2F7822B80831F9672
S1130D908C91DF91CF911F910F91FF90EF90DF9095
S1130DA0CF90089560620E9488060895CF93DF93E0
S1130DB01F92CDB7DEB720E7298321E030E0AE01F2
S1130DC04F5F5F4F67E00E94D2060F90DF91CF9193
S1130DD00895FF920F931F93CF93DF931F92CDB784
S1130DE0DEB78C01DC01ED91FC911197429181E019
S1130DF090E09C0112960C90129702C0220F331FB0
S1130E000A94E2F7242B20831396ED91FC91149716
S1130E1042919C0115960C90159702C0220F331F26
S1130E200A94E2F7242B2083ED91FC9111974081E1
S1130E309C0112960C90129702C0220F331F0A9441
S1130E40E2F7242B20831396ED91FC9114973081C3
S1130E50AC0115960C90159702C0440F551F0A94C7
S1130E60E2F7242F2095232320831696ED91FC91FD
S1130E70179742919C0118960C90189702C0220F64
S1130E80331F0A94E2F7242B20831996ED91FC91E9
S1130E901A9742919C011B960C901B9702C0220F3B
S1130EA0331F0A94E2F7242B20831C96ED91FC91C6
S1130EB01D9722911E960C9002C0880F991F0A94C8
S1130EC0E2F78095822380830CB404FE0E94D1074C
S1130ED020E030E040E050E062EEC8010E94880665
S1130EE020E030E040E050E061EEC8010E94880656
S1130EF0C8010E94D6068FE0898321E030E0AE016C
S1130F004F5F5F4F60E0C8010E94D2060F2EFFE3DF
S1130F10FF2EF02DF98221E030E0AE014F5F5F4FEC
S1130F2061E0C8010E94D20689E0898321E030E0B3
S1130F30AE014F5F5F4F66E0C8010E94D20680E6B3
S1130F40898321E030E0AE014F5F5F4F65E0C80167
S1130F500E94D206F98221E030E0AE014F5F5F4F7C
S1130F606CE1C8010E94D20684E0898321E030E06C
S1130F70AE014F5F5F4F6DE1C8010E94D20681E070
S1130F80898321E030E0AE014F5F5F4F62E0C8012A
S1130F900E94D2060F90DF91CF911F910F91FF9085
S1130FA008958CB580618CBD8CB580648CBD8CB586
S1130FB0877F8CBD8CB58B7F8CBD8CB581608CBDDF
S1130FC08CB58D7F8CBD8DB58E7F8DBD8CB58F7DA1
S1130FD08CBD08958EBD0DB407FEFDCF8EB508956A
S1130FE01092C50083E38093C400E0ECF0E08081BC
S1130FF08D7F808388E18093C10086E08093C20066
S11310000895E0ECF0E0908195FFFDCF8093C60059
S113101008950F931F93CF93FC018081882359F087
S11310208F01C0E00E940108CF5FF801EC0FF11DB1
S113103080818111F7CFCF911F910F9108958A304C
S113104010F4805D0895895C0895CF93C82F82952C
S11310508F700E941F080E9401088C2F8F700E94BD
S11310601F080E940108CF910895CF93C82F892F9C
S11310700E9425088C2F0E94250884E892E00E9493
S11310800908CF91089597FB072E16F4009407D012
S113109077FD09D00E94660807FC05D03EF49095C0
S11310A081959F4F0895709561957F4F0895A29FF4
S11310B0B001B39FC001A39F700D811D1124911D28
S11310C0B29F700D811D1124911D0895AA1BBB1B95
S11310D051E107C0AA1FBB1FA617B70710F0A61B34
S11310E0B70B881F991F5A95A9F780959095BC0155
S11310F0CD0108950F931F93CF93DF938230910511
S113110010F482E090E0E0918A02F0918B0220E0FA
S113111030E0A0E0B0E0309719F1408151810281C4
S1131120138148175907C8F08417950769F4109775
S113113031F012960C93129713961C9327C00093C8
S11311408A0210938B0222C02115310519F042172F
S1131150530718F49A01BD01EF01DF01F801DBCF59
S113116021153105F9F0281B390B2430310580F4A1
S11311708A819B816115710521F0FB019383828330
S113118004C090938B0280938A02FE01329644C07D
S1131190FE01E20FF31F81939193225031093983A9
S11311A028833AC02091880230918902232B41F48C
S11311B02091020130910301309389022093880227
S11311C020910001309101012115310541F42DB721
S11311D03EB74091040150910501241B350BE09169
S11311E08802F0918902E217F307A0F42E1B3F0B4B
S11311F02817390778F0AC014E5F5F4F2417350785
S113120048F04E0F5F1F50938902409388028193E8
S1131210919302C0E0E0F0E0CF01DF91CF911F9104
S11312200F910895CF93DF93009709F481C0FC01D7
S1131230329713821282A0918A02B0918B02109786
S113124081F420813181820F931F20918802309193
S113125089022817390751F5F0938902E09388022F
S113126067C0ED0120E030E0CE17DF0740F44A818B
S11312705B819E0141155105F1F0EA01F5CFD3835D
S1131280C28340815181840F951FC817D90759F42F
S113129088819981840F951F0296918380838A8126
S11312A09B81938382832115310529F4F0938B026A
S11312B0E0938A023DC0E901FB83EA834991599195
S11312C0C40FD51FEC17FD0761F480819181840F51
S11312D0951F0296E90199838883828193819B8378
S11312E08A83E0E0F0E012968D919C911397009729
S11312F019F0FD01DC01F7CF8D919C9111979D01AF
S11313002E5F3F4F820F931F2091880230918902F4
S11313102817390769F4309729F410928B02109238
S11313208A0202C013821282B0938902A0938802B7
S10D1330DF91CF910895F894FFCFE8
S113133A00008C0220002E002D005472616E736D21
S113134A697474696E67206F6E204368616E6E6596
S113135A6C3A20307800480D0A00524620536574CE
S113136A2075702056616C75653A20002020200093
S113137A2F00506F7765722049432053657474694E
S113138A6E67733A0053797374656D20537461748C
S113139A75733A20004D65746572696E67205374DB
S11313AA617475733A20004D65746572696E6720BD
S11313BA4D6F64653A2000436865636B73756D20ED
S11313CA313A2000436865636B73756D20323A20A5
S11313DA004D6561737572656D656E742043616C49
S11313EA6962726174696F6E205374617274204306
S11313FA6F6D6D616E643A2000566F6C7461676537
S113140A20524D53204761696E3A20004C204C69A2
S113141A6E652043757272656E7420524D5320476F
S113142A61696E3A2000566F6C746167653A2000F0
S113143A090943757272656E743A200046726571C1
S113144A75656E63793A200009506F776572204694
S113145A6163746F723A20000950686173652041B0
S113146A6E676C653A20000A0D41637469766520DB
S113147A506F7765723A2000095265616374697620
S113148A6520506F7765723A2000094162736F6C68
S113149A75746520506F7765723A20000D0A0A0048
S11314AA5374617274696E672050726F6772616DEA
S10914BA210D0A004800A8
S9030000FC
