:100000000C9434000C9441020C9451000C94510057
:100010000C9451000C9451000C9451000C9451001C
:100020000C9451000C9451000C9451000C941A0241
:100030000C9451000C9451000C9451000C945100FC
:100040000C9451000C9451000C9451000C945100EC
:100050000C9451000C9451000C9451000C945100DC
:100060000C9451000C94510011241FBECFEFD8E026
:10007000DEBFCDBF11E0A0E0B1E0ECEAFDE002C0E0
:1000800005900D92A639B107D9F721E0A6E9B1E0B4
:1000900001C01D92AC39B207E1F70E94A5010C9492
:1000A000D4060C94000080E28093B800ECEBF0E002
:1000B0008081846080830895ECEBF0E08081882368
:1000C000ECF7089584EA8093BC000E945C000895D8
:1000D00084E98093BC00089584EC8093BC000E9466
:1000E0005C008091BB00089584E88093BC000E946E
:1000F0005C008091BB0008958093BB0084E88093EE
:10010000BC000E945C000895CF93DF930E945C02C4
:10011000EC0185E290E09983888322E02A839C8326
:100120008B8321E02D839F838E8325E028879A8708
:10013000898723E02B879D878C8784E08E87E9E67B
:10014000F0E0808182608083E89ACE010E94CE0236
:10015000CE01DF91CF91089580E190E00E94B30538
:1001600020E1FC0111922A95E9F708950E94AC0064
:10017000FC0185E290E094838383158297838683D4
:1001800025E020879287818723E0238795878487CE
:1001900084E08687CF010895E1E8F0E080818860FF
:1001A0008083AFE6B0E08C9182608C9382E19AE725
:1001B0009093890080938800808184608083089573
:1001C0008EBD0DB407FEFDCF8EB50895DF92EF9280
:1001D000FF920F931F93CF93DF930E946200809151
:1001E0000B010E947C0080E00E947C000E94620063
:1001F00080910C010E947C000E946C008F77982FE8
:1002000092959F70292F220F920F990F082F091B8B
:100210000E946C00982F92959F70292F220F920FA9
:10022000990FF82EF91A0E946C00982F92959F70E2
:10023000292F220F920F990F182F191B0E946C0063
:100240000E946C00982F92959F70292F220F920F79
:10025000990FD82ED91A0E946C00982F92959F70F2
:10026000292F220F920F990FE82EE91A0E9474008D
:10027000982F92959F70292F220F920F990FC82FB8
:10028000C91BD0E0C053D84F0E9468001D3008F051
:100290001C50812F0E94CD048DE091E00E94B70494
:1002A0008F2D0E94CD048DE091E00E94B704802F35
:1002B0000E94CD048FE091E00E94B7048E2D0E9431
:1002C000CD0483E191E00E94B7048D2D0E94CD04FE
:1002D00083E191E00E94B704CE010E94F4048AE217
:1002E00091E00E94B704DF91CF911F910F91FF9091
:1002F000EF90DF9008952A980E94E00080E00E942D
:10030000E0002A9A0E94940585E191E00E94B704DA
:100310000895CF93DF93289880680E94E00080E0E2
:100320000E94E000D82F80E00E94E000C82F289AA9
:100330008D2F0E9494058C2F0E94940585E191E0F9
:100340000E94B704DF91CF910895CF93DF93CDB78B
:10035000DEB7A3970FB6F894DEBF0FBECDBF0E94E5
:100360009E040E945300209A78940E9484008C017D
:100370000E94B6000E94CC00289A89E191E00E9478
:10038000B7048DE291E00E94B70485E00E947B01F2
:1003900089E491E00E94B70486E00E947B018BE52E
:1003A00091E00E94B70481E00E9489018FE691E00C
:1003B0000E94B70483E00E948901D12CCC24C3940D
:1003C0007E0183E0E80EF11C80919701882351F0B3
:1003D00010929701C8010E944D04892B19F0C801A1
:1003E0000E94B30280919601882371F310929601C6
:1003F000DC2449F08BE0E3E8F1E0D70101900D92B5
:100400008A95E1F708C088E0EEE8F1E0D7010190B5
:100410000D928A95E1F7F70101900020E9F7EE19B6
:10042000EBA3AE014F5F5F4F66E071E0C8010E9431
:10043000DD03CACF1F920F920FB60F9211242F9394
:100440003F934F935F936F937F938F939F93AF935C
:10045000BF93EF93FF9381E0809396010E94E600A3
:10046000FF91EF91BF91AF919F918F917F916F918C
:100470005F914F913F912F910F900FBE0F901F9062
:1004800018951F920F920FB60F9211248F9381E04F
:10049000809397018F910F900FBE0F901F9018952A
:1004A000FC01A62FB72F9C012B5F3F4F91919D938D
:1004B000E217F307D9F7089580E190E00E94B305B1
:1004C00020E1FC0111922A95E9F70895CF93DF937B
:1004D000EC01DA01E881F981508181E090E00A8045
:1004E00002C0880F991F0A94E2F7809585238083C4
:1004F0006EBD0DB407FEFDCF8EB58F87211531057A
:1005000079F0FD012A0F3B1FDF0190819EBD0DB4E4
:1005100007FEFDCF9EB59C933196E217F307A1F736
:10052000E881F981208181E090E00A8002C0880F93
:10053000991F0A94E2F7822B80838F85DF91CF91F8
:10054000089560620E94660208950E9466020895FE
:1005500020E030E040E050E06FEF0E946602089536
:100560000E94A802089520E030E040E050E061EEF3
:100570000E9466020895CF93DF931F92CDB7DEB736
:1005800020E7298321E030E0AE014F5F5F4F67E055
:100590000E94A1020F90DF91CF910895FF920F93D7
:1005A0001F93CF93DF931F92CDB7DEB78C01DC0191
:1005B000ED91FC911197429181E090E09C0112969F
:1005C0000C90129702C0220F331F0A94E2F7242BDB
:1005D00020831396ED91FC91149742919C011596FE
:1005E0000C90159702C0220F331F0A94E2F7242BB8
:1005F0002083ED91FC91119740819C0112960C9003
:10060000129702C0220F331F0A94E2F7242B208393
:100610001396ED91FC9114973081AC0115960C90D6
:10062000159702C0440F551F0A94E2F7242F209516
:10063000232320832CB520612CBD2CB520642CBD38
:100640001696ED91FC91179742919C0118960C908B
:10065000189702C0220F331F0A94E2F7242B20833D
:100660001996ED91FC911A9742919C011B960C9062
:100670001B9702C0220F331F0A94E2F7242B20831A
:100680001C96ED91FC911D9722911E960C9002C034
:10069000880F991F0A94E2F78095822380838CB596
:1006A000877F8CBD8CB58B7F8CBD8CB581608CBDFC
:1006B0008CB58D7F8CBD8DB58E7F8DBD8CB58F7DBE
:1006C0008CBD20E030E040E050E062EEC8010E94C6
:1006D000660220E030E040E050E061EEC8010E9498
:1006E0006602C8010E94BB028FE0898321E030E0EE
:1006F000AE014F5F5F4F60E0C8010E94A1020F2E64
:10070000FFE3FF2EF02DF98221E030E0AE014F5FD4
:100710005F4F61E0C8010E94A10289E0898321E066
:1007200030E0AE014F5F5F4F66E0C8010E94A1025A
:1007300080E6898321E030E0AE014F5F5F4F65E0E6
:10074000C8010E94A102F98221E030E0AE014F5FB2
:100750005F4F6CE1C8010E94A10284E0898321E01F
:1007600030E0AE014F5F5F4F6DE1C8010E94A10212
:1007700081E0898321E030E0AE014F5F5F4F62E0AE
:10078000C8010E94A1020F90DF91CF911F910F919C
:10079000FF900895CF93DF931F92CDB7DEB720E38C
:1007A000298321E030E0AE014F5F5F4F67E00E9498
:1007B000A1020F90DF91CF910895CF92DF92EF9237
:1007C000FF920F931F93CF93DF9300D000D000D000
:1007D000CDB7DEB78C016B017A010E94CA03BE015E
:1007E0006F5F7F4FC6010E94500225E030E0AE01EE
:1007F0004F5F5F4F60E1C8010E94A102BE016F5FC1
:100800007F4FC6010E94500225E030E0AE014F5FED
:100810005F4F6AE0C8010E94A102D70192962C9115
:1008200030E0A7014E5F5F4F60EAC8010E94660298
:1008300021E030E0AE014A5F5F4F60E0C8010E94F6
:10084000A5028E818E7F8E8321E030E0AE014A5F6B
:100850005F4F60E0C8010E94A102D8011396ED919C
:10086000FC911497208181E090E015960C9002C0D5
:10087000880F991F0A94E2F7822B808326960FB681
:10088000F894DEBF0FBECDBFDF91CF911F910F91C6
:10089000FF90EF90DF90CF900895EF92FF920F932B
:1008A0001F93CF93DF931F92CDB7DEB78C01DC018E
:1008B0001396ED91FC911497208181E090E01596BC
:1008C0000C9002C0880F991F0A94E2F7809582234A
:1008D0008083C8010E94B002F801878585FD07C0AA
:1008E00084FD08C06894EE24E1F8F12C06C0E12CE8
:1008F000F12C03C0EE24E394F12CC8010E94CA033A
:1009000021E030E0AE014F5F5F4F60E0C8010E9420
:10091000A50289818160898321E030E0AE014F5FCB
:100920005F4F60E0C8010E94A102C7010F90DF91F4
:10093000CF911F910F91FF90EF9008951092C500F5
:1009400083E38093C400E0ECF0E080818D7F8083BE
:1009500088E18093C10086E08093C2000895E0ECB6
:10096000F0E0908195FFFDCF8093C60008950F932E
:100970001F93CF93FC018081882359F08F01C0E041
:100980000E94AF04CF5FF801EC0FF11D808181114F
:10099000F7CFCF911F910F910895CF93DF93D82F69
:1009A0009DEC899FC12D1124C695C695C695C99FFA
:1009B000912D1124969596959695990F892F880FCC
:1009C000880F980F8C2F891B805D0E94AF04CC0F7D
:1009D0008C2F880F880FC80F8D2F8C1B805D0E9475
:1009E000AF04DF91CF9108950F931F93CF93DF93BF
:1009F0008C019C0136952795369527953695279538
:100A0000A5ECB0E20E94A405AC01529542954F704E
:100A100045275F7045279A01ADECBCEC0E94A40508
:100A20009695879596958795969587959C01220F23
:100A3000331F880F991F880F991F880F991F820FE6
:100A4000931F9A01281B390BC901805D0E94AF04D6
:100A500098013695279536952795ABE7B4E10E9426
:100A6000A405AC01569547959A01ADECBCEC0E94EB
:100A7000A4059695879596958795969587959C015B
:100A8000220F331F880F991F880F991F880F991FF6
:100A9000820F931F9A01281B390BC901805D0E94A8
:100AA000AF049801ADECBCEC0E94A405EC01D69516
:100AB000C795D695C795D695C7959E010E94A40562
:100AC0009695879596958795969587959C01220F83
:100AD000331F880F991F880F991F880F991F820F46
:100AE000931F9E01281B390BC901805D0E94AF0432
:100AF000CE01880F991FCC0FDD1FCC0FDD1FCC0F4F
:100B0000DD1FC80FD91FC8018C1B9D0B805D0E9483
:100B1000AF04DF91CF911F910F9108958A3010F4A7
:100B2000805D0895895C0895CF93C82F82958F705A
:100B30000E948E050E94AF048C2F8F700E948E053C
:100B40000E94AF04CF910895A29FB001B39FC0014E
:100B5000A39F700D811D1124911DB29F700D811DE9
:100B60001124911D08950F931F93CF93DF9382302B
:100B7000910510F482E090E0E0919A01F0919B01E0
:100B800020E030E0A0E0B0E0309719F140815181E1
:100B90000281138148175907C8F08417950769F433
:100BA000109731F012960C93129713961C9327C04E
:100BB00000939A0110939B0122C02115310519F071
:100BC0004217530718F49A01BD01EF01DF01F80144
:100BD000DBCF21153105F9F0281B390B2430310505
:100BE00080F48A819B816115710521F0FB0193835B
:100BF000828304C090939B0180939A01FE013296F8
:100C000044C0FE01E20FF31F8193919322503109FA
:100C1000398328833AC02091980130919901232B80
:100C200041F4209102013091030130939901209306
:100C3000980120910001309101012115310541F405
:100C40002DB73EB74091040150910501241B350B8F
:100C5000E0919801F0919901E217F307A0F42E1B9F
:100C60003F0B2817390778F0AC014E5F5F4F241710
:100C7000350748F04E0F5F1F50939901409398013C
:100C80008193919302C0E0E0F0E0CF01DF91CF913A
:100C90001F910F910895CF93DF93009709F481C0BE
:100CA000FC01329713821282A0919A01B0919B01AC
:100CB000109781F420813181820F931F2091980138
:100CC000309199012817390751F5F0939901E09374
:100CD000980167C0ED0120E030E0CE17DF0740F457
:100CE0004A815B819E0141155105F1F0EA01F5CF82
:100CF000D383C28340815181840F951FC817D907C0
:100D000059F488819981840F951F0296918380837D
:100D10008A819B81938382832115310529F4F09385
:100D20009B01E0939A013DC0E901FB83EA8349916D
:100D30005991C40FD51FEC17FD0761F48081918193
:100D4000840F951F0296E90199838883828193819C
:100D50009B838A83E0E0F0E012968D919C9113973B
:100D6000009719F0FD01DC01F7CF8D919C9111974F
:100D70009D012E5F3F4F820F931F2091980130916C
:100D800099012817390769F4309729F410929B01CB
:100D900010929A0102C013821282B0939901A0931B
:0C0DA0009801DF91CF910895F894FFCFE7
:100DAC0000009C012000C2C2C2C2C2D0D13A0020B5
:100DBC002020002F00480D0A005374617274696E74
:100DCC00672050726F6772616D210D0A0054726159
:100DDC006E736D697474696E67206F6E2043686101
:100DEC006E6E656C3A203078005246205365742044
:100DFC0075702056616C75653A200070494320521D
:100E0C0065672056616C7565203031483A2000705A
:100E1C004943205265672056616C75652030334814
:100E2C003A2000486F6C6F20426962697300546508
:060E3C0020416D6F210052
:00000001FF
